S0140000576865656C577261707065722E737265633A
S11300000C942C000C9454000C9454000C94540044
S11300100C9454000C9454000C9454000C9454000C
S11300200C9454000C9454000C9454000C945400FC
S11300300C9454000C9454000C9454000C945400EC
S11300400C9454000C9454000C9454000C945C00D4
S11300500C945400AB0E3F0F11241FBECFE5D4E027
S1130060DEBFCDBF13E0A0E6B0E0EEE8FCE202C0E4
S113007005900D92AE30B107D9F723E0AEE0B3E0BE
S113008001C01D92A437B207E1F710E0CBE2D0E043
S113009004C02197FE010E94EF14CA32D107C9F7A8
S11300A00E942F0E0C943A160C9400000E94F51432
S11300B008950E948A1508951F920F920FB60F9209
S11300C011242F933F934F935F936F937F938F9359
S11300D09F93AF93BF93EF93FF93E0916F03F0E08F
S11300E0EE0FFF1FE15AFC4F80819181009731F0A0
S11300F0DC011296ED91FC911397099580916F03A1
S11301008F5F883018F480936F0302C010926F03DE
S1130110FF91EF91BF91AF919F918F917F916F91DB
S11301205F914F913F912F910F900FBE0F901F90B1
S1130130189580910E0390910F0381309105B9F0C9
S11301401CF4892B39F0089582309105F1F003975E
S113015069F1089581E090E090930F0380930E037A
S1130160AE98AF9A8FEF93E097BD86BD0895AF9890
S1130170AE9AECE1F3E014828281858382E090E020
S113018090930F0380930E030895AF98AE9883E085
S113019090E090930F0380930E0380911C03909141
S11301A01D0390935E0380935D03089510920F03E3
S11301B010920E03089585B38F6385BB80911A0353
S11301C090911B0390FF08C081E090E090930F038F
S11301D080930E030E94990080911A0390911B034F
S11301E087FF08C082E090E090930F0380930E0392
S11301F00E94990080911A0390911B0393FDA89883
S113020080911A0390911B0399230CF4A99880916F
S11302101A0390911B0396FDAA9880911A0390915A
S11302201B0395FDAB9880911A0390911B0391FDDC
S1130230AC9880911A0390911B0385FDAD980895A5
S11302400F931F93CF93DF93C4E1D3E08A819B8103
S1130250DC01ED91FC910684F785E02D09958A81F6
S11302609B81DC01ED91FC910088F189E02D0995D9
S113027081E090E09F838E8307E110E0888199817B
S1130280DC01ED91FC910088F189E02D09958E81C6
S11302909F81880F991F9F838E838C819D81DC01B0
S11302A0ED91FC910484F585E02D0995811105C03B
S11302B08E819F8101969F838E8388819981DC0141
S11302C0ED91FC910684F785E02D09950150110903
S11302D0A9F680911A0390911B030E94DB00DF9121
S11302E0CF911F910F91089508958D9A8EB5877EB1
S11302F08EBD8FB58C7F8FBD8FB582608FBD8EB55F
S113030080618EBD8FB580688FBD8EB5887F8EBDB0
S11303108EB581608EBD8FEF9FEF97BD86BD1BBCF0
S11303201ABC08958F929F92AF92BF92CF92DF92A0
S1130330EF92FF920F931F93CF93DF93CCE1D3E01F
S113034088859985DC01ED91FC910088F189E02D87
S113035009958A818B838FEF8FB9779BFECF8FB1FD
S113036090E0880F991F880F991F880F991F809319
S11303701E038FEF8FB9779BFECF8FB1CCE1D3E013
S113038090E09595879595958795959587959595FD
S11303908795959587952A81822B8A838885998567
S11303A0DC01ED91FC910684F785E02D09958B81A4
S11303B0813C38F090911E039F3318F49C819F5F19
S11303C09C8360911E03613C38F08F3328F4ECE188
S11303D0F3E0848181508483ECE1F3E0848170E074
S11303E0782B8581EB01C81BD109D183C08380910F
S11303F05D0390915E038C179D0740F166B577B558
S113040000915D0310915E0380E090E00E94F4137C
S11304106B017C01BE0180E090E00E94F4134B016B
S11304205C01B80180E090E00E94F4139B01AC01F0
S1130430C501B4010E9453139B01AC01C701B6016D
S11304400E9482140E94C5137BBD6ABDDF91CF91C7
S11304501F910F91FF90EF90DF90CF90BF90AF90DE
S11304609F908F9008958FEF8ABB84BB81BB87BB1D
S113047088BB85BB82BBA79AA69A08950F931F9346
S1130480CF93DF930E943302CCE2D3E08E819F812D
S1130490DC01ED91FC910088F189E02D09958A81B8
S11304A09B81DC01ED91FC910488F589E02D09958F
S11304B088819981DC01ED91FC910488F589E02D16
S11304C009958E819F81DC01ED91FC910488F58969
S11304D0E02D09958A859B85DC01ED91FC910688C8
S11304E0F789E02D09958C819D81DC01ED91FC91CA
S11304F00488F589E02D099588859985DC01ED91BD
S1130500FC910488F589E02D09958C859D85DC0195
S1130510ED91FC910488F589E02D09958E819F81E8
S1130520DC01ED91FC910088F189E02D09958A8127
S11305309B81DC01ED91FC910684F785E02D099502
S1130540BFEF20E782E0B15020408040E1F700C0D7
S113055000008A819B81DC01ED91FC910088F18986
S1130560E02D0995BFEF20E782E0B15020408040A4
S1130570E1F700C000008A819B81DC01ED91FC91D0
S11305800684F785E02D09951DB86C9A6E9A8EB194
S11305908EB988819981DC01ED91FC910088F18903
S11305A0E02D09958E898FB9779BFECF8091490301
S11305B08FB9779BFECF8FE38FB9779BFECF809166
S11305C04C038FB9779BFECF80914F038FB9779BF4
S11305D0FECF80914A0382608FB9779BFECF8091D2
S11305E04B038FB9779BFECF8091520381608FB903
S11305F0779BFECF809140038FB9779BFECF80918C
S113060053038FB9779BFECF80914D038FB9779BAE
S1130610FECF1FB8779BFECF809154038FB9779B91
S1130620FECF81E38FB9779BFECF8FE39CE90197DF
S1130630F1F700C00000809151038FB9779BFECF82
S1130640809144038FB9779BFECF1FB8779BFECF71
S1130650809147038FB9779BFECF80913C038FB97C
S1130660779BFECF809148038FB9779BFECF8FE1B4
S11306708FB9779BFECF809145038FB9779BFECFCF
S113068082E18FB9779BFECF809146038FB9779B28
S1130690FECF80E48FB9779BFECF80913D038FB965
S11306A0779BFECF8FEF8FB9779BFECF80913E0370
S11306B08FB9779BFECF809140038FB9779BFECF94
S11306C0809143038FB9779BFECF10EBCCE2D3E04C
S11306D000E088819981DC01ED91FC910088F18929
S11306E0E02D09958E8D8FB9779BFECF1FB9779B2F
S11306F0FECF8F8D8FB9779BFECF88819981DC01E6
S1130700ED91FC910684F785E02D0995802F1FB8A3
S1130710779BFECF8F5F8038D1F788819981DC0188
S1130720ED91FC910088F189E02D09951F5F183B3C
S113073081F6CCE2D3E08E819F81DC01ED91FC91C6
S11307400684F785E02D09958E819F81DC01ED916A
S1130750FC910088F189E02D099587E08CBF83B76F
S11307608E7F83BF83B7886083BF89B78E7F89BF3D
S113077089B7826089BF83B7887F83BF83B784606A
S113078083BF7894C4E1D3E088819981DC01ED9141
S1130790FC910488F589E02D09958A819B81DC010F
S11307A0ED91FC910488F589E02D09958C819D815A
S11307B0DC01ED91FC910688F789E02D09958A8189
S11307C09B81DC01ED91FC910088F189E02D099574
S11307D00E949900DF91CF911F910F9108954F923C
S11307E05F926F927F928F929F92AF92BF92CF92BD
S11307F0DF92EF92FF920F931F93CF93DF93CDB7C6
S1130800DEB76C970FB6F894DEBF0FBECDBF4AE1DA
S113081050E060E070E0CE0101960E9422160CE2E6
S113082013E0D8018D919C91DC01ED91FC9100883D
S1130830F189E02D0995F801868D8FB9779BFECF5C
S113084080EB8FB9779BFECF80914B038FB9779B59
S1130850FECF80912C0390912D03DC01ED91FC914E
S11308600684F785E02D09951FB8779BFECF80910C
S11308702C0390912D03DC01ED91FC910684F78506
S1130880E02D09959980992009F449C05E01B2E0F0
S1130890AB0EB11C0F2EFCE2CF2EF3E0DF2EF02DB9
S11308A0F60180819181DC01ED91FC910684F7854C
S11308B0E02D0995892D90E088977C01EE0CFF1CB2
S11308C0EE0CFF1C8E0D9F1D8C01095D1F4FFC015A
S11308D0E45DFF4F7F01F0E29F1204C01FB8779BD5
S11308E0FECF06C0C8010E9432168FB9779BFECF97
S11308F00F5F1F4F0E151F0571F71FB8779BFECFB3
S1130900D6018D919C91DC01ED91FC910088F189D7
S1130910E02D0995F50191905F019110C1CF0CE292
S113092013E0D8018D919C91DC01ED91FC9100883C
S1130930F189E02D099543E050E064E270E0CE01D6
S113094001960E942216F80180819181DC01ED91CB
S1130950FC910088F189E02D0995F801868D8FB905
S1130960779BFECF81EB8FB9779BFECF80914B03B2
S11309708FB9779BFECF80912C0390912D03DC01DE
S1130980ED91FC910684F785E02D09951FB8779BBE
S1130990FECF80912C0390912D03DC01ED91FC910D
S11309A00684F785E02D09959980992009F449C0BA
S11309B05E01B2E0AB0EB11C0F2EFCE2CF2EF3E0D1
S11309C0DF2EF02DF60180819181DC01ED91FC9107
S11309D00684F785E02D0995892D90E088977C01A0
S11309E0EE0CFF1CEE0CFF1C8E0D9F1D8C01095D8F
S11309F01F4FFC01E45DFF4F7F01F0E29F1204C032
S1130A001FB8779BFECF06C0C8010E9432168FB96B
S1130A10779BFECF0F5F1F4F0E151F0571F71FB891
S1130A20779BFECFD6018D919C91DC01ED91FC91D9
S1130A300088F189E02D0995F50191905F019110ED
S1130A40C1CF0CE213E0D8018D919C91DC01ED91B2
S1130A50FC910088F189E02D09954BB2F801808161
S1130A609181DC01ED91FC910684F785E02D0995D7
S1130A700F2EFBEC8F2EF1E09F2EF02D0F2EF0EDBC
S1130A80CF2EF1E0DF2EF02D8401C8010E94321632
S1130A908FB9779BFECF0F5F1F4F0C151D05A9F76C
S1130AA01FB8779BFECF80912C0390912D03DC011E
S1130AB0ED91FC910088F189E02D0995A12CB12CD0
S1130AC00F2EFCE26F2EF3E07F2EF02D512CF3015C
S1130AD080819181DC01ED91FC910684F785E02D04
S1130AE00995C2010A2C02C0959587950A94E2F7EC
S1130AF08370805D90E088977C01EE0CFF1CEE0C07
S1130B00FF1C8E0D9F1D8C01095D1F4FFC01E45DD0
S1130B10FF4F7F01C8010E9432168FB9779BFECF29
S1130B200F5F1F4F0E151F05A9F71FB8779BFECF48
S1130B30D3018D919C91DC01ED91FC910088F189A8
S1130B40E02D0995B2E0AB0EB11CE8E0AE16B1049D
S1130B5009F0BDCF80912C0390912D03DC01ED9120
S1130B60FC910684F785E02D09950BEC11E0C80192
S1130B700E9432168FB9779BFECF0F5F1F4FC016AE
S1130B80D106A9F71FB8779BFECF0CE213E0F8015A
S1130B9080819181DC01ED91FC910088F189E02D47
S1130BA009954AB2F80180819181DC01ED91FC91B3
S1130BB00684F785E02D09950BEC11E0C8010E942D
S1130BC032168FB9779BFECF0F5F1F4FC016D10629
S1130BD0A9F71FB8779BFECF80912C0390912D032A
S1130BE0DC01ED91FC910088F189E02D0995A12C9F
S1130BF0B12C0F2EFCE26F2EF3E07F2EF02D512C42
S1130C00F30180819181DC01ED91FC910684F785EB
S1130C10E02D0995C2010A2C02C0959587950A9486
S1130C20E2F78370805D90E088977C01EE0CFF1CF6
S1130C30EE0CFF1C8E0D9F1D8C01095D1F4FFC01E6
S1130C40E45DFF4F7F01C8010E9432168FB9779B84
S1130C50FECF0F5F1F4F0E151F05A9F71FB8779B17
S1130C60FECFD3018D919C91DC01ED91FC91008824
S1130C70F189E02D0995B2E0AB0EB11CE8E0AE16A7
S1130C80B10409F0BDCF80912C0390912D03DC01B8
S1130C90ED91FC910684F785E02D09950BEC11E0AC
S1130CA0C8010E9432168FB9779BFECF0F5F1F4F8A
S1130CB0C016D106A9F71FB8779BFECF0CE213E04C
S1130CC0F80180819181DC01ED91FC910088F1892A
S1130CD0E02D099549B2F80180819181DC01ED9103
S1130CE0FC910684F785E02D09950BEC11E0C80111
S1130CF00E9432168FB9779BFECF0F5F1F4FC0162D
S1130D00D106A9F71FB8779BFECF80912C03909151
S1130D102D03DC01ED91FC910088F189E02D09950A
S1130D20A12CB12C0F2EFCE26F2EF3E07F2EF02DC0
S1130D30512CF30180819181DC01ED91FC910684B9
S1130D40F785E02D0995C2010A2C02C09595879577
S1130D500A94E2F78370805D90E088977C01EE0C42
S1130D60FF1CEE0CFF1C8E0D9F1D8C01095D1F4F97
S1130D70FC01E45DFF4F7F01C8010E9432168FB968
S1130D80779BFECF0F5F1F4F0E151F05A9F71FB8E6
S1130D90779BFECFD3018D919C91DC01ED91FC9169
S1130DA00088F189E02D0995B2E0AB0EB11CE8E0B2
S1130DB0AE16B10409F0BDCF80912C0390912D03A0
S1130DC0DC01ED91FC910684F785E02D09950BEC8F
S1130DD011E0C8010E9432168FB9779BFECF0F5FD6
S1130DE01F4FC016D106A9F71FB8779BFECF0CE2A0
S1130DF013E0F80180819181DC01ED91FC91008880
S1130E00F189E02D099543E050E061E270E0CE0104
S1130E1001960E942216F80180819181DC01ED91F6
S1130E20FC910088F189E02D0995F801868D8FB930
S1130E30779BFECF82EB8FB9779BFECF80914B03DC
S1130E408FB9779BFECF80912C0390912D03DC0109
S1130E50ED91FC910684F785E02D09951FB8779BE9
S1130E60FECF80912C0390912D03DC01ED91FC9138
S1130E700684F785E02D09955980552009F449C069
S1130E805E01B2E0AB0EB11C0F2EFCE26F2EF3E05C
S1130E907F2EF02DF30180819181DC01ED91FC9195
S1130EA00684F785E02D0995852D90E088977C01CF
S1130EB0EE0CFF1CEE0CFF1C8E0D9F1D8C01095DBA
S1130EC01F4FFC01E45DFF4F7F01F0E25F1204C09D
S1130ED01FB8779BFECF06C0C8010E9432168FB997
S1130EE0779BFECF0F5F1F4F0E151F0571F71FB8BD
S1130EF0779BFECFD3018D919C91DC01ED91FC9108
S1130F000088F189E02D0995F50151905F01511098
S1130F10C1CF0CE213E0D8018D919C91DC01ED91DD
S1130F20FC910088F189E02D099548B2F80180818F
S1130F309181DC01ED91FC910684F785E02D099502
S1130F400BEC11E0C8010E9432168FB9779BFECFDB
S1130F500F5F1F4FC016D106A9F71FB8779BFECFAE
S1130F6080912C0390912D03DC01ED91FC9100887C
S1130F70F189E02D0995A12CB12C0F2EFCE26F2EE6
S1130F80F3E07F2EF02D512CF30180819181DC015F
S1130F90ED91FC910684F785E02D0995C2010A2C98
S1130FA002C0959587950A94E2F78370805D90E07E
S1130FB088977C01EE0CFF1CEE0CFF1C8E0D9F1D10
S1130FC08C01095D1F4FFC01E45DFF4F7F01C801E7
S1130FD00E9432168FB9779BFECF0F5F1F4F0E15FD
S1130FE01F05A9F71FB8779BFECFD3018D919C9164
S1130FF0DC01ED91FC910088F189E02D0995B2E0C6
S1131000AB0EB11CE8E0AE16B10409F0BDCF80917F
S11310102C0390912D03DC01ED91FC910684F7855E
S1131020E02D09950BEC11E0C8010E9432168FB92E
S1131030779BFECF0F5F1F4FC016D106A9F71FB8CD
S1131040779BFECF0CE213E0F80180819181DC01F3
S1131050ED91FC910088F189E02D099547B2F801E2
S113106080819181DC01ED91FC910684F785E02D6E
S113107009950BEC11E0C8010E9432168FB9779BD9
S1131080FECF0F5F1F4FC016D106A9F71FB8779B7D
S1131090FECF80912C0390912D03DC01ED91FC9106
S11310A00088F189E02D0995A12CB12C0F2EFCE2CA
S11310B06F2EF3E07F2EF02D512CF301808191816E
S11310C0DC01ED91FC910684F785E02D0995C201C0
S11310D00A2C02C0959587950A94E2F78370805D87
S11310E090E088977C01EE0CFF1CEE0CFF1C8E0D2B
S11310F09F1D8C01095D1F4FFC01E45DFF4F7F01C3
S1131100C8010E9432168FB9779BFECF0F5F1F4F25
S11311100E151F05A9F71FB8779BFECFD3018D913C
S11311209C91DC01ED91FC910088F189E02D0995F9
S1131130B2E0AB0EB11CE8E0AE16B10409F0BDCFCD
S113114080912C0390912D03DC01ED91FC91068498
S1131150F785E02D09950BEC11E0C8010E943216C9
S11311608FB9779BFECF0F5F1F4FC016D106A9F72B
S11311701FB8779BFECF0CE213E0F80180819181C8
S1131180DC01ED91FC910088F189E02D099546B2CE
S1131190F80180819181DC01ED91FC910684F78551
S11311A0E02D09950BEC11E0C8010E9432168FB9AD
S11311B0779BFECF0F5F1F4FC016D106A9F71FB84C
S11311C0779BFECF80912C0390912D03DC01ED9150
S11311D0FC910088F189E02D0995A12CB12C0F2EEA
S11311E0FCE26F2EF3E07F2EF02D512CF301808171
S11311F09181DC01ED91FC910684F785E02D099540
S1131200C2010A2C02C0959587950A94E2F783706F
S1131210805D90E088977C01EE0CFF1CEE0CFF1CB7
S11312208E0D9F1D8C01095D1F4FFC01E45DFF4F76
S11312307F01C8010E9432168FB9779BFECF0F5FE2
S11312401F4F0E151F05A9F71FB8779BFECFD301BB
S11312508D919C91DC01ED91FC910088F189E02D48
S11312600995B2E0AB0EB11CE8E0AE16B10409F08A
S1131270BDCF80912C0390912D03DC01ED91FC9165
S11312800684F785E02D09950BEC11E0C8010E9456
S113129032168FB9779BFECF0F5F1F4FC016D10652
S11312A0A9F71FB8779BFECF0CE213E0F801808109
S11312B09181DC01ED91FC910088F189E02D099583
S11312C043E050E06EE170E0CE0101960E942216E8
S11312D0F80180819181DC01ED91FC910088F18914
S11312E0E02D0995F801868D8FB9779BFECF83EBAE
S11312F08FB9779BFECF80914B038FB9779BFECF3D
S113130080912C0390912D03DC01ED91FC910684D6
S1131310F785E02D09951FB8779BFECF80912C03AC
S113132090912D03DC01ED91FC910684F785E02D6D
S113133009955980552009F449C05E01B2E0AB0E0D
S1131340B11C0F2EFCE26F2EF3E07F2EF02DF30183
S113135080819181DC01ED91FC910684F785E02D7B
S11313600995852D90E088977C01EE0CFF1CEE0C0E
S1131370FF1C8E0D9F1D8C01095D1F4FFC01E45D58
S1131380FF4F7F01F0E25F1204C01FB8779BFECFCE
S113139006C0C8010E9432168FB9779BFECF0F5F3B
S11313A01F4F0E151F0571F71FB8779BFECFD30192
S11313B08D919C91DC01ED91FC910088F189E02DE7
S11313C00995F50151905F015110C1CF0CE213E072
S11313D0D8018D919C91DC01ED91FC910088F189FB
S11313E0E02D099545B2F80180819181DC01ED91F0
S11313F0FC910684F785E02D09950BEC11E0C801FA
S11314000E9432168FB9779BFECF0F5F1F4FC01615
S1131410D106A9F71FB8779BFECF80912C0390913A
S11314202D03DC01ED91FC910088F189E02D0995F3
S1131430A12CB12C0F2EFCE26F2EF3E07F2EF02DA9
S1131440512CF30180819181DC01ED91FC910684A2
S1131450F785E02D0995C2010A2C02C09595879560
S11314600A94E2F78370805D90E088977C01EE0C2B
S1131470FF1CEE0CFF1C8E0D9F1D8C01095D1F4F80
S1131480FC01E45DFF4F7F01C8010E9432168FB951
S1131490779BFECF0F5F1F4F0E151F05A9F71FB8CF
S11314A0779BFECFD3018D919C91DC01ED91FC9152
S11314B00088F189E02D0995B2E0AB0EB11CE8E09B
S11314C0AE16B10409F0BDCF80912C0390912D0389
S11314D0DC01ED91FC910684F785E02D09950BEC78
S11314E011E0C8010E9432168FB9779BFECF0F5FBF
S11314F01F4FC016D106A9F71FB8779BFECF0CE289
S113150013E0F80180819181DC01ED91FC91008868
S1131510F189E02D099544B2F80180819181DC01C3
S1131520ED91FC910684F785E02D09950BEC11E013
S1131530C8010E9432168FB9779BFECF0F5F1F4FF1
S1131540C016D106A9F71FB8779BFECF80912C0354
S113155090912D03DC01ED91FC910088F189E02D3F
S11315600995A12CB12C0F2EFCE26F2EF3E07F2EF7
S1131570F02D512CF30180819181DC01ED91FC91DE
S11315800684F785E02D0995C2010A2C02C09595C1
S113159087950A94E2F78370805D90E088977C01D8
S11315A0EE0CFF1CEE0CFF1C8E0D9F1D8C01095DC3
S11315B01F4FFC01E45DFF4F7F01C8010E943216FA
S11315C08FB9779BFECF0F5F1F4F0E151F05A9F72D
S11315D01FB8779BFECFD3018D919C91DC01ED91D7
S11315E0FC910088F189E02D0995B2E0AB0EB11CA5
S11315F0E8E0AE16B10409F0BDCF80912C039091C0
S11316002D03DC01ED91FC910684F785E02D09950D
S11316100BEC11E0C8010E9432168FB9779BFECF04
S11316200F5F1F4FC016D106A9F71FB8779BFECFD7
S11316300CE213E0F80180819181DC01ED91FC91D1
S11316400088F189E02D099543B2F80180819181E8
S1131650DC01ED91FC910684F785E02D09950BECF6
S113166011E0C8010E9432168FB9779BFECF0F5F3D
S11316701F4FC016D106A9F71FB8779BFECF8091E4
S11316802C0390912D03DC01ED91FC910088F189EC
S1131690E02D0995A12CB12C0F2EFCE26F2EF3E066
S11316A07F2EF02D512CF30180819181DC01ED918D
S11316B0FC910684F785E02D0995C2010A2C02C02D
S11316C0959587950A94E2F78370805D90E08897FA
S11316D07C01EE0CFF1CEE0CFF1C8E0D9F1D8C017B
S11316E0095D1F4FFC01E45DFF4F7F01C8010E94AB
S11316F032168FB9779BFECF0F5F1F4F0E151F0554
S1131700A9F71FB8779BFECFD3018D919C91DC0183
S1131710ED91FC910088F189E02D0995B2E0AB0EC2
S1131720B11CE8E0AE16B10409F0BDCF80912C03E2
S113173090912D03DC01ED91FC910684F785E02D59
S113174009950BEC11E0C8010E9432168FB9779B02
S1131750FECF0F5F1F4FC016D106A9F71FB8779BA6
S1131760FECF0CE213E0F80180819181DC01ED9160
S1131770FC910088F189E02D099543E050E06BE18C
S113178070E0CE0101960E942216F80180819181B9
S1131790DC01ED91FC910088F189E02D0995F801B7
S11317A0868D8FB9779BFECF84EB8FB9779BFECF65
S11317B080914B038FB9779BFECF80912C0390913E
S11317C02D03DC01ED91FC910684F785E02D09954C
S11317D01FB8779BFECF80912C0390912D03DC01E1
S11317E0ED91FC910684F785E02D099559805520EB
S11317F009F449C05E01B2E0AB0EB11C0F2EFCE24D
S11318006F2EF3E07F2EF02DF30180819181DC01B6
S1131810ED91FC910684F785E02D0995852D90E0E6
S113182088977C01EE0CFF1CEE0CFF1C8E0D9F1D97
S11318308C01095D1F4FFC01E45DFF4F7F01F0E265
S11318405F1204C01FB8779BFECF06C0C8010E9478
S113185032168FB9779BFECF0F5F1F4F0E151F05F2
S113186071F71FB8779BFECFD3018D919C91DC015A
S1131870ED91FC910088F189E02D0995F5015190D5
S11318805F015110C1CF0CE213E0D8018D919C91FE
S1131890DC01ED91FC910088F189E02D099542B2BB
S11318A0F80180819181DC01ED91FC910684F7853A
S11318B0E02D09950BEC11E0C8010E9432168FB996
S11318C0779BFECF0F5F1F4FC016D106A9F71FB835
S11318D0779BFECF80912C0390912D03DC01ED9139
S11318E0FC910088F189E02D0995A12CB12C0F2ED3
S11318F0FCE26F2EF3E07F2EF02D512CF30180815A
S11319009181DC01ED91FC910684F785E02D099528
S1131910C2010A2C02C0959587950A94E2F7837058
S1131920805D90E088977C01EE0CFF1CEE0CFF1CA0
S11319308E0D9F1D8C01095D1F4FFC01E45DFF4F5F
S11319407F01C8010E9432168FB9779BFECF0F5FCB
S11319501F4F0E151F05A9F71FB8779BFECFD301A4
S11319608D919C91DC01ED91FC910088F189E02D31
S11319700995B2E0AB0EB11CE8E0AE16B10409F073
S1131980BDCF80912C0390912D03DC01ED91FC914E
S11319900684F785E02D09950BEC11E0C8010E943F
S11319A032168FB9779BFECF0F5F1F4FC016D1063B
S11319B0A9F71FB8779BFECF0CE213E0F8018081F2
S11319C09181DC01ED91FC910088F189E02D09956C
S11319D041B2F80180819181DC01ED91FC91068492
S11319E0F785E02D09950BEC11E0C8010E94321631
S11319F08FB9779BFECF0F5F1F4FC016D106A9F793
S1131A001FB8779BFECF80912C0390912D03DC01AE
S1131A10ED91FC910088F189E02D0995A12CB12C60
S1131A200F2EFCE26F2EF3E07F2EF02D512CF301EC
S1131A3080819181DC01ED91FC910684F785E02D94
S1131A400995C2010A2C02C0959587950A94E2F77C
S1131A508370805D90E088977C01EE0CFF1CEE0C97
S1131A60FF1C8E0D9F1D8C01095D1F4FFC01E45D61
S1131A70FF4F7F01C8010E9432168FB9779BFECFBA
S1131A800F5F1F4F0E151F05A9F71FB8779BFECFD9
S1131A90D3018D919C91DC01ED91FC910088F18939
S1131AA0E02D0995B2E0AB0EB11CE8E0AE16B1042E
S1131AB009F0BDCF80912C0390912D03DC01ED91B1
S1131AC0FC910684F785E02D09950BEC11E0C80123
S1131AD00E9432168FB9779BFECF0F5F1F4FC0163F
S1131AE0D106A9F71FB8779BFECF0CE213E0F801EB
S1131AF080819181DC01ED91FC910088F189E02DD8
S1131B00099540B2F80180819181DC01ED91FC914D
S1131B100684F785E02D09950BEC11E0C8010E94BD
S1131B2032168FB9779BFECF0F5F1F4FC016D106B9
S1131B30A9F71FB8779BFECF80912C0390912D03BA
S1131B40DC01ED91FC910088F189E02D0995A12C2F
S1131B50B12C0F2EFCE26F2EF3E07F2EF02D512CD2
S1131B60F30180819181DC01ED91FC910684F7857C
S1131B70E02D0995C2010A2C02C0959587950A9417
S1131B80E2F78370805D90E088977C01EE0CFF1C87
S1131B90EE0CFF1C8E0D9F1D8C01095D1F4FFC0177
S1131BA0E45DFF4F7F01C8010E9432168FB9779B15
S1131BB0FECF0F5F1F4F0E151F05A9F71FB8779BA8
S1131BC0FECFD3018D919C91DC01ED91FC910088B5
S1131BD0F189E02D0995B2E0AB0EB11CE8E0AE1638
S1131BE0B10409F0BDCF80912C0390912D03DC0149
S1131BF0ED91FC910684F785E02D0995C4010E94BE
S1131C0032168FB9779BFECFBFEF8B1A9B0AC8148D
S1131C10D904A1F71FB8779BFECF80912C03909134
S1131C202D03DC01ED91FC910088F189E02D0995EB
S1131C306C960FB6F894DEBF0FBECDBFDF91CF9187
S1131C401F910F91FF90EF90DF90CF90BF90AF90D6
S1131C509F908F907F906F905F904F9008950E9417
S1131C603E02AE98AF9ABB24B39477247394812C2C
S1131C70C4E1D3E0CC24C394D12C0F2EF7E19F2EE2
S1131C80F02DA12C0F2EFCE2EF2EF3E0FF2EF02D11
S1131C90BB2021F0AE98AF9AB82C03C0AE9AAF988F
S1131CA0B72C8A819B81DC01ED91FC910684F78538
S1131CB0E02D09958A819B81DC01ED91FC910088DE
S1131CC0F189E02D0995DF82CE82092D1A2D8881B4
S1131CD09981DC01ED91FC910088F189E02D099551
S1131CE08E819F81880F991F9F838E838C819D8114
S1131CF0DC01ED91FC910484F585E02D09958111B9
S1131D0005C08E819F8101969F838E8388819981EE
S1131D10DC01ED91FC910684F785E02D09950150D5
S1131D201109A9F68E819F81F70186819781DC01D3
S1131D30ED91FC910088F189E02D09950E94EF0353
S1131D40F70186819781DC01ED91FC910684F7858A
S1131D50E02D09959DCF10926F03EFE5F3E08FE638
S1131D6093E011921192E817F907D9F7ECE2F3E046
S1131D7080E8868790EB978780EF808B81E8818B62
S1131D8084EA828B85EA838B86EA848B87EA858B57
S1131D908EEA868B8FEA878B83ED808F8AED818F25
S1131DA08BED828F85ED838F89ED848F88EA858F13
S1131DB082E0868F20E1278F20E420A320E221A364
S1131DC021E222A393A390EC94A398EC95A390EA28
S1131DD096A39DEA97A39BE890A781A78FE282A789
S1131DE08EE283A783EA84A786E285A787E286A793
S1131DF089E287A78AE280AB8EE790E091838083B3
S1131E0080E890E09383828364E770E0738762875D
S1131E1046E750E0558344838CE790E097838683BC
S1131E2028E730E03587248782E790E09187808730
S1131E30ECE1F3E011821082128213821482158283
S1131E4075876487578346834AE750E05187408704
S1131E503787268793878287E4E1F3E082E890E07E
S1131E609183808384E890E09383828386E890E082
S1131E709583848310921303109212030895089596
S1131E80AE980895AF9A0895AF980895AE9A0895BC
S1131E90A89A0895A99A0895AA9A0895AB9A0895BC
S1131EA0AC9A0895AD9A0895A8980895A9980895AC
S1131EB0AA980895AB980895AC980895AD9808959C
S1131EC08D9A0895A79A0895A69A08950895089555
S1131ED00895089508950895089508950895089516
S1131EE00895089508950895089508950895089506
S1131EF008950895959A08959598089592B380E267
S1131F00892782BB08958D9A08958D980895662334
S1131F1041F0DC01ED91FC910684F785E02D0995F3
S1131F200895DC01ED91FC910088F189E02D09957B
S1131F30089580B385FB882780F90895959A0895BC
S1131F409598089592B380E2892782BB08958D986D
S1131F500895A898089595B381E0892785BB0895CD
S1131F60A09A0895A0980895662341F0DC01ED91AC
S1131F70FC910684F785E02D09950895DC01ED9127
S1131F80FC910088F189E02D0995089583B381704F
S1131F900895A89A089595B381E0892785BB08958B
S1131FA0A09A0895A0980895A998089595B382E0F9
S1131FB0892785BB0895A19A0895A1980895662359
S1131FC041F0DC01ED91FC910684F785E02D099543
S1131FD00895DC01ED91FC910088F189E02D0995CB
S1131FE0089583B3869581700895A99A089595B349
S1131FF082E0892785BB0895A19A0895A198089540
S1132000AA98089595B384E0892785BB0895A29A78
S11320100895A2980895662341F0DC01ED91FC91A6
S11320200684F785E02D09950895DC01ED91FC9176
S11320300088F189E02D0995089583B382FB8827F0
S113204080F90895AA9A089595B384E0892785BBF9
S11320500895A29A0895A2980895AB98089595B307
S113206088E0892785BB0895A39A0895A3980895C5
S1132070662341F0DC01ED91FC910684F785E02DA7
S113208009950895DC01ED91FC910088F189E02D1A
S11320900995089583B383FB882780F90895AB9A43
S11320A0089595B388E0892785BB0895A39A089578
S11320B0A3980895AC98089595B380E1892785BBCA
S11320C00895A49A0895A4980895662341F0DC0124
S11320D0ED91FC910684F785E02D09950895DC01C6
S11320E0ED91FC910088F189E02D0995089583B361
S11320F0829581700895AC9A089595B380E18927FB
S113210085BB0895A49A0895A4980895AD98089558
S113211095B380E2892785BB0895A59A0895A5986B
S11321200895662341F0DC01ED91FC910684F78566
S1132130E02D09950895DC01ED91FC910088F18969
S1132140E02D0995089583B385FB882780F90895C8
S1132150AD9A089595B380E2892785BB0895A59A21
S11321600895A5980895AE9A0895AE98089595B3E4
S113217080E4892785BB0895A69A0895A6980895B2
S1132180662341F0DC01ED91FC910684F785E02D96
S113219009950895DC01ED91FC910088F189E02D09
S11321A00995089583B386FB882780F9089595B32C
S11321B080E4892785BB0895A6980895AF9A089569
S11321C0AF98089585B3805885BB0895A79A08955C
S11321D0A7980895662341F0DC01ED91FC910684F3
S11321E0F785E02D09950895DC01ED91FC910088B7
S11321F0F189E02D0995089581E09F9B80E0089581
S113220085B3805885BB0895A7980895C79A089503
S1132210C798089588B3805888BB0895BF9A0895D5
S1132220BF980895662341F0DC01ED91FC9106848A
S1132230F785E02D09950895DC01ED91FC91008866
S1132240F189E02D0995089581E0B79B80E0089518
S1132250C79A0895C798089588B3805888BB08958D
S1132260BF9A0895BF980895C69A0895C698089588
S113227098B380E4892788BB0895BE9A0895BE98D0
S11322800895662341F0DC01ED91FC910684F78505
S1132290E02D09950895DC01ED91FC910088F18908
S11322A0E02D0995089586B386FB882780F9089563
S11322B0C69A0895C698089598B380E4892788BB80
S11322C00895BE9A0895BE980895C59A0895C5982C
S11322D0089598B380E2892788BB0895BD9A08952C
S11322E0BD980895662341F0DC01ED91FC910684CC
S11322F0F785E02D09950895DC01ED91FC910088A6
S1132300F189E02D0995089586B385FB882780F926
S11323100895C59A0895C598089598B380E28927C9
S113232088BB0895BD9A0895BD980895C49A0895E8
S1132330C498089598B380E1892788BB0895BC9A0E
S11323400895BC980895662341F0DC01ED91FC9159
S11323500684F785E02D09950895DC01ED91FC9143
S11323600088F189E02D0995089586B382958170DE
S11323700895C49A0895C498089598B380E189276C
S113238088BB0895BC9A0895BC980895C39A08958B
S1132390C398089598B388E0892788BB0895BB9AA9
S11323A00895BB980895662341F0DC01ED91FC91FA
S11323B00684F785E02D09950895DC01ED91FC91E3
S11323C00088F189E02D0995089586B383FB882759
S11323D080F90895C39A0895C398089598B388E03E
S11323E0892788BB0895BB9A0895BB980895C29A1B
S11323F00895C298089598B384E0892788BB089506
S1132400BA9A0895BA980895662341F0DC01ED91D3
S1132410FC910684F785E02D09950895DC01ED9182
S1132420FC910088F189E02D0995089586B382FB1B
S1132430882780F90895C29A0895C298089598B398
S113244084E0892788BB0895BA9A0895BA980895B4
S1132450C19A0895C198089598B382E0892788BBEA
S11324600895B99A0895B9980895662341F0DC0156
S1132470ED91FC910684F785E02D09950895DC0122
S1132480ED91FC910088F189E02D0995089586B3BA
S1132490869581700895C19A0895C198089598B356
S11324A082E0892788BB0895B99A0895B998089558
S11324B0C09A0895C098089598B381E0892788BB8D
S11324C00895B89A0895B8980895662341F0DC01F8
S11324D0ED91FC910684F785E02D09950895DC01C2
S11324E0ED91FC910088F189E02D0995089586B35A
S11324F081700895C09A0895C098089598B381E0B2
S1132500892788BB0895B89A0895B8980895DA9AE7
S11325100895DA9808959BB384E089278BBB0895C6
S1132520D29A0895D2980895662341F0DC01ED9182
S1132530FC910684F785E02D09950895DC01ED9161
S1132540FC910088F189E02D0995089589B382FBF7
S1132550882780F90895DA9A0895DA9808959BB344
S113256084E089278BBB0895D29A0895D298089560
S1132570D99A0895D99808959BB382E089278BBB93
S11325800895D19A0895D1980895662341F0DC0105
S1132590ED91FC910684F785E02D09950895DC0101
S11325A0ED91FC910088F189E02D0995089589B396
S11325B0869581700895D99A0895D99808959BB302
S11325C082E089278BBB0895D19A0895D198089504
S11325D0D89A0895D89808959BB381E089278BBB36
S11325E00895D09A0895D0980895662341F0DC01A7
S11325F0ED91FC910684F785E02D09950895DC01A1
S1132600ED91FC910088F189E02D0995089589B335
S113261081700895D89A0895D89808959BB381E05D
S113262089278BBB0895D09A0895D09808950E9465
S11326308A1508950E948A1508950E948A1508959E
S11326400E948A1508950E948A1508950E948A1589
S113265008950E948A1508950E948A1508950E947B
S11326608A1508950E948A1508950E948A1508956E
S11326700E948A1508950E948A1508950E948A1559
S113268008950E948A1508950E948A1508950E944B
S11326908A1508950E948A1508950E948A1508953E
S11326A00E948A1508950E9467130C9448140E948E
S11326B0411458F00E943A1440F029F45F3F29F085
S11326C00C94311451110C947C140C9437140E9402
S11326D0591468F39923B1F3552391F3951B550BC2
S11326E0BB27AA2762177307840738F09F5F5F4FE1
S11326F0220F331F441FAA1FA9F335D00E2E3AF020
S1132700E0E832D091505040E695001CCAF72BD037
S1132710FE2F29D0660F771F881FBB1F2617370788
S11327204807AB07B0E809F0BB0B802DBF01FF27BA
S113273093585F4F3AF09E3F510578F00C94311452
S11327400C947C145F3FE4F3983ED4F3869577951C
S11327506795B795F7959F5FC9F7880F911D969573
S1132760879597F90895E1E0660F771F881FBB1FCF
S1132770621773078407BA0720F0621B730B840B7C
S1132780BA0BEE1F88F7E09508950E94611488F053
S11327909F5798F0B92F9927B751B0F0E1F0660F21
S11327A0771F881F991F1AF0BA95C9F714C0B13062
S11327B091F00E947B14B1E008950C947B14672F70
S11327C0782F8827B85F39F0B93FCCF38695779591
S11327D06795B395D9F73EF490958095709561957A
S11327E07F4F8F4F9F4F0895E89409C097FB3EF4A5
S11327F090958095709561957F4F8F4F9F4F99234A
S1132800A9F0F92F96E9BB279395F69587957795C7
S11328106795B795F111F8CFFAF4BB0F11F460FF87
S11328201BC06F5F7F4F8F4F9F4F16C0882311F0DF
S113283096E911C0772321F09EE8872F762F05C0F3
S1132840662371F096E8862F70E060E02AF09A958E
S1132850660F771F881FDAF7880F9695879597F983
S1132860089597F99F6780E870E060E008959FEF0E
S113287080EC089500240A94161617061806090613
S1132880089500240A9412161306140605060895E2
S1132890092E0394000C11F4882352F0BB0F40F46A
S11328A0BF2B11F460FF04C06F5F7F4F8F4F9F4FAA
S11328B0089557FD9058440F551F59F05F3F71F02C
S11328C04795880F97FB991F61F09F3F79F0879593
S11328D00895121613061406551FF2CF4695F1DF1C
S11328E008C0161617061806991FF1CF86957105AC
S11328F0610508940895E894BB2766277727CB01E0
S113290097F908950E9495140C9448140E943A145F
S113291038F00E94411420F0952311F00C943114E6
S11329200C94371411240C947C140E94591470F3E1
S1132930959FC1F3950F50E0551F629FF001729F60
S1132940BB27F00DB11D639FAA27F00DB11DAA1F6F
S1132950649F6627B00DA11D661F829F2227B00DBC
S1132960A11D621F739FB00DA11D621F839FA00D47
S1132970611D221F749F3327A00D611D231F849F97
S1132980600D211D822F762F6A2F11249F575040EE
S11329909AF0F1F088234AF0EE0FFF1FBB1F661F69
S11329A0771F881F91505040A9F79E3F510580F032
S11329B00C9431140C947C145F3FE4F3983ED4F3EC
S11329C0869577956795B795F795E7959F5FC1F7D6
S11329D0FE2B880F911D9695879597F90895EE0F14
S11329E0FF1F0590F491E02D0994CF93DF9382307B
S11329F0910510F482E090E0E0917203F09173038A
S1132A0020E030E0C0E0D0E0309711F14081518106
S1132A1048175907C0F04817590761F48281938118
S1132A20209719F09B838A832BC090937303809320
S1132A30720326C02115310519F04217530718F403
S1132A409A01BE01DF01EF010280F381E02DDCCFAA
S1132A502115310509F1281B390B2430310590F477
S1132A6012968D919C9113976115710521F0FB01CC
S1132A709383828304C09093730380937203FD0154
S1132A80329644C0FD01E20FF31F819391932250CB
S1132A9031092D933C933AC0209170033091710316
S1132AA0232B41F420918A0030918B0030937103E1
S1132AB020937003209188003091890021153105FD
S1132AC041F42DB73EB740918C0050918D00241BEA
S1132AD0350BE0917003F0917103E217F307A0F452
S1132AE02E1B3F0B2817390778F0AC014E5F5F4F60
S1132AF02417350748F04E0F5F1F5093710340931E
S1132B0070038193919302C0E0E0F0E0CF01DF9184
S1132B10CF9108950F931F93CF93DF93009709F4F8
S1132B208CC0FC01329713821282009172031091BF
S1132B3073030115110581F420813181820F931FE4
S1132B4020917003309171032817390779F5F093B8
S1132B507103E093700371C0D80140E050E0AE17F8
S1132B60BF0750F412962D913C911397AD01211596
S1132B70310509F1D901F3CF9D01DA0133832283B1
S1132B8060817181860F971F8217930769F4EC01A6
S1132B9028813981260F371F2E5F3F4F31832083D1
S1132BA08A819B8193838283452B29F4F093730359
S1132BB0E093720342C01396FC93EE931297ED01D7
S1132BC0499159919E01240F351FE217F30771F4BF
S1132BD080819181840F951F029611969C938E9308
S1132BE08281938113969C938E931297E0E0F0E098
S1132BF0D80112968D919C911397009719F0F801C2
S1132C008C01F6CF8D919C9198012E5F3F4F820FDE
S1132C10931F20917003309171032817390769F4C9
S1132C20309729F4109273031092720302C0138236
S1132C3012821093710300937003DF91CF911F915F
S1132C400F910895DC01CB01FC01E199FECF06C090
S1132C50FFBBEEBBE09A31960DB20D92415050404D
S1132C60B8F70895E199FECF9FBB8EBBE09A9927F0
S1132C708DB3089510E0CBE2D0E004C0FE010E94C1
S1112C80EF142196CC32D107C9F7F894FFCF98
S1132C8EF202D202B2029202720252023202120212
S1132C9EF201D201B201920172015201320112010A
S1132CAEF200D200B2009200000074032000000073
S1132CBE0000E812EA12EC12F112F312F5120713E5
S1132CCE0A130C130E1313131513790F501300005C
S1132CDE0000B812BA12BC12C112C312C512D71216
S1132CEEDB12DD12DF12E412E612780F4D13000030
S1132CFE0000871289128B12901292129412A6124D
S1132D0EAB12AD12AF12B412B612770F4A13000003
S1132D1E000058125A125C12611263126512771275
S1132D2E7A127C127E1283128512760F47130000DC
S1132D3E000028122A122C123112331235124712A5
S1132D4E4B124D124F1254125612750F44130000AB
S1132D5E0000F711F911FB110012021204121612DF
S1132D6E1B121D121F1224122612740F411300007F
S1132D7E0000C611C811CA11CF11D111D311E5111A
S1132D8EEA11EC11EE11F311F511730F3E1300005D
S1132D9E0000961198119A119F11A111A311B5114A
S1132DAEB911BB11BD11C211C411720F3B13000036
S1132DBE00006511671169116E1170117211841181
S1132DCE89118B118D1192119411710F381300000A
S1132DDE00003411361138113D113F1141115311B8
S1132DEE58115A115C1161116311700F35130000E3
S1132DFE0000061108110A110E11101112112411DE
S1132E0E28112A112C11301132116F0F32130000B8
S1132E1E0000DE10E010E210E610E810EA10FC10DC
S1132E2E420F440F0011620F04116E0F2F13000096
S1132E3E0000B310B510B710BC10BE10C010D210E5
S1132E4E460F400FD710640FDC106D0F2C130000CB
S1132E5E0000520F861088108D108F109110A31041
S1132E6EA8105E0FAA10AF10B1106C0F291300003A
S1132E7E0000500F5A105C1061106310651077102B
S1132E8E7B105C0F7D10821084106B0F26130000D4
S1132E9E00004E0F2D102F103410361038104A101B
S1132EAE4F105A0F5110561058106A0F231300006A
S1132EBE00004C0F00100210071009100B101D100B
S1132ECE2210580F241029102B10690F2013000004
S1132EDE00004A0FD40FD60FDB0FDD0FDF0FF10FFB
S1132EEEF50F560FF70FFC0FFE0F680F1D130000A2
S1132EFE0000480FA90FAB0FB00FB20FB40FC60FDF
S1132F0EC90F540FCB0FD00FD20F670F1A13000037
S1132F1E00007A0F7C0F7E0F830F850F870F990F9A
S1112F2E9E0FA00FA20F600FA70F660F1713C0
S9030000FC
