S0140000576865656C577261707065722E737265633A
S11300000C943A000C9485010C9462000C946200E8
S11300100C9462000C9462000C9462000C946200D4
S11300200C9462000C9462000C9462000C946200C4
S11300300C9462000C9462000C9462000C946200B4
S11300400C9462000C9462000C9462000C943D01C8
S11300500C9462001101150119011D010B010E011F
S11300602001D401D801DC01E001CE01D101E3017A
S1130070AC16451711241FBECFE5D4E0DEBFCDBFBB
S113008012E0A0E6B0E0E4E7F4E302C005900D92CC
S1130090A436B107D9F722E0A4E6B2E001C01D926C
S11300A0AB3DB207E1F710E0C9E3D0E004C021970B
S11300B0FE010E94E218C833D107C9F70E94361620
S11300C00C942D1A0C9400000F931F93CF938091DE
S11300D07D0290917E02DC01ED91FC910684F7850E
S11300E0E02D0995000080917D0290917E02DC0153
S11300F0ED91FC910088F189E02D09950FE010E065
S1130100C0E080917B0290917C02DC01ED91FC9136
S11301100088F189E02D0995CC0F80917F029091A0
S11301208002DC01ED91FC910484F585E02D0995B4
S1130130811101C0CF5F80917B0290917C02DC0130
S1130140ED91FC910684F785E02D09950150110984
S1130150C1F6C0936702CF911F910F9108950F9339
S11301601F93CF9308E010E0C0E080917B02909150
S11301707C02DC01ED91FC910088F189E02D099568
S1130180CC0F80917F0290918002DC01ED91FC9173
S11301900484F585E02D0995811101C0CF5F80911C
S11301A07B0290917C02DC01ED91FC910684F78541
S11301B0E02D099501501109C1F6C0936802CF9151
S11301C01F910F91089540B380B390B343FBEE2782
S11301D0E0F9F0E0EE0FFF1FEE0FFF1F84FB222774
S11301E020F930E0220F331F2E2B96FB992790F92C
S11301F0E22FE92BE0936C028E2F90E0FC01319703
S1130200E730F10520F08091830285BB0895E65D17
S1130210FF4F0C94E21881EF85BB089589E985BBF3
S113022008958091840285BB08958091660285BB00
S113023008958091670285BB089580EF85BB08957A
S11302408091640270916502609166025091670228
S1130250409168023091690220916A0290916B0288
S1130260872786278527842783278227892785BB95
S113027008950C94E8180C947D191F920F920FB6F0
S11302800F9211242F933F934F935F936F937F9318
S11302908F939F93AF93BF93EF93FF939091D60265
S11302A0E92FF0E0EE0FFF1FEA53FD4FA081B1816B
S11302B0109741F01296ED91FC911397CD01099599
S11302C09091D6029F5F983098F01092D602FF91D9
S11302D0EF91BF91AF919F918F917F916F915F91BA
S11302E04F913F912F910F900FBE0F901F90189533
S11302F09093D602ECCF8FEF84BB15BA11BA12BA21
S113030080E48BBF83E085BF08951F920F920FB6E0
S11303100F9211242F933F934F935F936F937F9387
S11303208F939F93AF93BF93EF93FF9340B380B3A7
S113033090B343FBEE27E0F9F0E0EE0FFF1FEE0F62
S1130340FF1F84FB222720F930E0220F331F2E2BBE
S113035096FB992790F9E22FE92BE0936C028E2FFC
S113036090E0FC013197E730F105A0F08091830221
S113037085BBFF91EF91BF91AF919F918F917F9139
S11303806F915F914F913F912F910F900FBE0F90FE
S11303901F901895EF5CFF4F0C94E21881EF85BB1A
S11303A0E8CF89E985BBE5CF8091840285BBE1CFA5
S11303B08091660285BBDDCF8091670285BBD9CF72
S11303C080EF85BBD6CF8091640270916502609105
S11303D0660250916702409168023091690220914F
S11303E06A0290916B0287278627852784278327B3
S11303F08227892785BBBDCF80916D0290916E02C3
S11304008130910539F1CCF08230910539F00397B0
S113041071F510926E0210926D02089583E090E0DF
S113042090936E0280936D02809183029091840276
S11304309093C5028093C4020895892BC9F481E086
S113044090E090936E0280936D028FEF93E097BDDE
S113045086BD089510928702809185028093880258
S113046082E090E090936E0280936D020895089567
S1130470089584E690E090937A02809379028FEA5B
S113048090E0909376028093750283EE90E09093CF
S11304907202809371028091C6029091C702892BE7
S11304A009F46EC08091C8029091C902009709F4C2
S11304B081C02091CA023091CB02232B09F483C05E
S11304C02091CC023091CD02232B09F47FC02091DE
S11304D0CE023091CF02232B09F484C02091D002A4
S11304E03091D102232B09F480C02091D2023091A3
S11304F0D302232B09F482C02091D4023091D50277
S1130500232B09F47EC0892B09F457C08091CA02B9
S11305109091CB02892B09F453C08091CC02909125
S1130520CD02892B09F455C08091CE029091CF025F
S1130530892B09F454C08091D0029091D102892B67
S113054009F456C08091D2029091D302892B09F408
S113055052C08091D4029091D502892B09F008955C
S113056087E090E0FC01EE0FFF1FEA53FD4F23E705
S113057032E0318320839093740280937302089550
S113058080E090E0FC01EE0FFF1FEA53FD4F27E7E8
S113059032E03183208390937802809377028091B4
S11305A0C6029091C702892BB9F08091C80290913C
S11305B0C902A9CF81E090E0E5CF81E090E0D2CFFD
S11305C082E090E0CFCF82E090E0DCCF83E090E067
S11305D0D9CF83E090E0C6CF80E090E0C3CF84E041
S11305E090E0C0CF84E090E0CDCF85E090E0CACF2A
S11305F085E090E0B7CF86E090E0B4CF86E090E06D
S1130600C1CF87E090E0BECF8F929F92AF92BF920E
S1130610CF92DF92EF92FF920F931F93CF93DF93CA
S113062080918B0290918C02DC01ED91FC91008809
S1130630F189E02D099580918502809386028FEFE0
S11306408FB9779BFECF8FB190E0880F991F880FE9
S1130650991F880F991F809385028FEF8FB9779B1D
S1130660FECF8FB190E09595879595958795959553
S11306708795959587959595879520918502822BE9
S11306808093850280918B0290918C02DC01ED9124
S1130690FC910684F785E02D09959091860260917E
S11306A0850280918702913C18F06F3308F44EC0A4
S11306B0613C28F09F3318F481508093870270E0E6
S11306C0782B80918802EB01C81BD109D093840256
S11306D0C09383028091C4029091C5028C179D0738
S11306E040F166B577B50091C4021091C50280E06F
S11306F090E00E94E7176B017C01BE0180E090E06E
S11307000E94E7174B015C01B80180E090E00E9471
S1130710E7179B01AC01C501B4010E9446179B0178
S1130720AC01C701B6010E9475180E94B8177BBDC1
S11307306ABDDF91CF911F910F91FF90EF90DF90F1
S1130740CF90BF90AF909F908F9008958F5F8093CC
S11307508702B5CF8FEF8ABB84BB81BB87BB88BBC5
S113076085BB82BB0895CF938FEF8ABB84BB81BBCB
S113077087BB88BB85BB82BB8091990290919A020A
S1130780DC01ED91FC910088F189E02D09958091BF
S1130790950290919602DC01ED91FC910488F58913
S11307A0E02D09958091930290919402DC01ED91E2
S11307B0FC910488F589E02D099580919902909126
S11307C09A02DC01ED91FC910488F589E02D0995EC
S11307D080919D0290919E02DC01ED91FC9106882E
S11307E0F789E02D09958091970290919802DC0198
S11307F0ED91FC910488F589E02D099580919B0287
S113080090919C02DC01ED91FC910488F589E02D26
S1130810099580919F029091A002DC01ED91FC91D9
S11308200488F589E02D09958091990290919A02A6
S1130830DC01ED91FC910088F189E02D099580910E
S1130840950290919602DC01ED91FC910684F78566
S1130850E02D099583ED90E30197F1F700C00000C6
S11308608091950290919602DC01ED91FC910088B3
S1130870F189E02D099583ED90E30197F1F700C02C
S113088000008091950290919602DC01ED91FC911B
S11308900684F785E02D09951DB86C9A6E9A8EB181
S11308A08EB98091930290919402DC01ED91FC91B8
S11308B00088F189E02D09958091A9028FB9779B71
S11308C0FECF8091B0028FB9779BFECF8FE38FB9B3
S11308D0779BFECF8091B3028FB9779BFECF809137
S11308E0B6028FB9779BFECF8091B10282608FB937
S11308F0779BFECF8091B2028FB9779BFECF809118
S1130900B90281608FB9779BFECF8091A7028FB91E
S1130910779BFECF8091BA028FB9779BFECF8091EF
S1130920B4028FB9779BFECF1FB8779BFECF80911F
S1130930BB028FB9779BFECF81E38FB9779BFECF44
S113094083EC99E00197F1F700C000008091B802B0
S11309508FB9779BFECF8091AB028FB9779BFECF87
S11309601FB8779BFECF8091AE028FB9779BFECFE5
S11309708091A3028FB9779BFECF8091AF028FB98C
S1130980779BFECF8FE18FB9779BFECF8091AC022E
S11309908FB9779BFECF82E18FB9779BFECF809191
S11309A0AD028FB9779BFECF80E48FB9779BFECFE2
S11309B08091A4028FB9779BFECF8FEF8FB9779B7D
S11309C0FECF8091A5028FB9779BFECF8091A702BD
S11309D08FB9779BFECF8091AA028FB9779BFECF08
S11309E0C0EB8091930290919402DC01ED91FC9113
S11309F00088F189E02D09958091B1028FB9779B28
S1130A00FECFCFB9779BFECF8091B2028FB9779B8F
S1130A10FECF8091930290919402DC01ED91FC91C0
S1130A200684F785E02D099580E890E01FB8779B50
S1130A30FECF0197D9F78091930290919402DC0143
S1130A40ED91FC910088F189E02D0995CF5FC83BB9
S1130A5041F68091990290919A02DC01ED91FC910A
S1130A600684F785E02D099580918B0290918C0284
S1130A70DC01ED91FC910488F589E02D09958091C4
S1130A808F0290919002DC01ED91FC910688F78928
S1130A90E02D09958091890290918A02DC01ED9103
S1130AA0FC910488F589E02D099580918D0290913F
S1130AB08E02DC01ED91FC910488F589E02D099505
S1130AC08091910290919202DC01ED91FC91048855
S1130AD0F589E02D099580918B0290918C02DC01BF
S1130AE0ED91FC910684F785E02D09951DB86C9A6B
S1130AF06E9A8EB18EB980918B0290918C02DC013A
S1130B00ED91FC910088F189E02D09958FEF8FB963
S1130B10779BFECF8FEF8FB9779BFECF80918B02AF
S1130B2090918C02DC01ED91FC910684F785E02D17
S1130B30099580918B0290918C02DC01ED91FC91DE
S1130B400684F785E02D09958091990290919A0287
S1130B50DC01ED91FC910088F189E02D099584E692
S1130B6090E090937A02809379028FEA90E09093D8
S1130B7076028093750283EE90E0909372028093E4
S1130B8071028091C6029091C702892B09F435C184
S1130B908091C8029091C902009709F42BC1209159
S1130BA0CA023091CB02232B09F421C12091CC023B
S1130BB03091CD02232B09F417C12091CE0230913C
S1130BC0CF02232B09F40DC12091D0023091D10220
S1130BD0232B09F403C12091D2023091D302232B99
S1130BE009F4F4C02091D4023091D502232B09F4E6
S1130BF0D5C0892B09F4CFC08091CA029091CB0251
S1130C00892B09F4C5C08091CC029091CD02892B27
S1130C1009F4BBC08091CE029091CF02892B09F4D4
S1130C20B1C08091D0029091D102892B09F4A7C060
S1130C308091D2029091D302892B09F49DC08091B6
S1130C40D4029091D502892B09F486C087E08CBF29
S1130C5083B78E7F83BF83B7886083BF89B78E7F56
S1130C6089BF89B7826089BF83B7887F83BF83B711
S1130C70846083BF789480917B0290917C02DC0134
S1130C80ED91FC910488F589E02D099580917D0210
S1130C9090917E02DC01ED91FC910488F589E02DB0
S1130CA0099580917F0290918002DC01ED91FC9185
S1130CB00688F789E02D099580917D0290917E0246
S1130CC0DC01ED91FC910088F189E02D099580917A
S1130CD06D0290916E028130910589F11CF1823090
S1130CE0910589F0039721F410926E0210926D021F
S1130CF08FEF84BB15BA11BA12BA80E48BBF83E0BC
S1130D0085BFCF91089583E090E090936E02809325
S1130D106D0280918302909184029093C502809326
S1130D20C402E6CF892B21F781E090E090936E0214
S1130D3080936D028FEF93E097BD86BDD9CF10925B
S1130D408702809185028093880282E090E09093EC
S1130D506E0280936D02CCCF87E090E0FC01EE0F31
S1130D60FF1FEA53FD4F23E732E031832083909342
S1130D707402809373026ACF86E090E0EFCF85E03F
S1130D8090E0ECCF84E090E0E9CF83E090E0E6CF20
S1130D9082E090E0E3CF81E090E0E0CF87E090E074
S1130DA0FC01EE0FFF1FEA53FD4F27E732E03183CA
S1130DB0208390937802809377028091C602909169
S1130DC0C702892B31F480E090E0C8CF86E090E040
S1130DD0E7CF8091C8029091C9020BCF85E090E0E3
S1130DE0DFCF84E090E0DCCF83E090E0D9CF82E0F5
S1130DF090E0D6CF81E090E0D3CF80E090E0D0CFF8
S1130E00AF92BF92CF92DF92EF92FF920F931F9314
S1130E10CF93DF9360916C0283E992E00E94460BCA
S1130E208091930290919402DC01ED91FC910088F1
S1130E30F189E02D09958091B1028FB9779BFECF9E
S1130E4086EB8FB9779BFECF8091B2028FB9779BE7
S1130E50FECF8091930290919402DC01ED91FC917C
S1130E600684F785E02D09951FB8779BFECFA090E7
S1130E708302B09084028091930290919402DC01E9
S1130E80ED91FC910684F785E02D09959BECE92E04
S1130E9091E0F92EE701CE010E94251A8FB9779BC4
S1130EA0FECF2196B1E0C03DDB07A9F71FB8779BC1
S1130EB0FECF8091930290919402DC01ED91FC911C
S1130EC00088F189E02D09950FE010E0CC24C3944B
S1130ED0D12CC601002E02C0880F991F0A94E2F794
S1130EE08A219B21892B09F45AC080919302909105
S1130EF09402DC01ED91FC910684F785E02D0995BF
S1130F00C4E5D0E0CE010E94251A8FB9779BFECFAD
S1130F102196B0E0C935DB07A9F71FB8779BFECF50
S1130F208091930290919402DC01ED91FC910088F0
S1130F30F189E02D09950150110958F68091930229
S1130F4090919402DC01ED91FC910684F785E02DEB
S1130F500995C7010E94251A8FB9779BFECFBFEF71
S1130F60EB1AFB0A80EDE81681E0F80691F71FB84A
S1130F70779BFECF8091930290919402DC01ED91D6
S1130F80FC910088F189E02DDF91CF911F910F91A1
S1130F90FF90EF90DF90CF90BF90AF900994809135
S1130FA0930290919402DC01ED91FC910684F78503
S1130FB0E02D0995CFE4D0E0CE010E94251A8FB927
S1130FC0779BFECF2196B0E0C435DB07A9F71FB8A5
S1130FD0779BFECFA5CF80B383FB882780F9089544
S1130FE080B382958170089580B386FB882780F949
S1130FF00895089508950895089508950895089505
S113100008950895089508950895089508950895F4
S1131010939A08959398089592B388E0892782BBA0
S113102008958B9A08958B980895939A08959398A8
S1131030089592B388E0892782BB08958B9A089516
S11310408B980895949A08959498089592B380E1A2
S1131050892782BB08958C9A08958C980895949A50
S113106008959498089592B380E1892782BB0895E6
S11310708C9A08958C980895969A08959698089550
S113108092B380E4892782BB08958E9A08958E983E
S11310900895969A08959698089592B380E48927BE
S11310A082BB08958E9A08958E980895959A08950E
S11310B09598089592B380E2892782BB08958D9A0A
S11310C008958D98089580B385FB882780F9089545
S11310D0959A08959598089592B380E2892782BBE2
S11310E008958D9A08958D980895C79A0895C7987C
S11310F0089588B3805888BB0895BF9A0895BF980F
S1131100089581E0B79B80E00895C79A0895C79831
S1131110089588B3805888BB0895BF9A0895BF98EE
S11311200895C69A0895C698089598B380E48927C7
S113113088BB0895BE9A0895BE98089586B386FB29
S1131140882780F90895C69A0895C698089598B393
S113115080E4892788BB0895BE9A0895BE980895AF
S1131160C59A0895C598089598B380E2892788BBE5
S11311700895BD9A0895BD98089586B385FB882780
S113118080F90895C59A0895C598089598B380E2A2
S1131190892788BB0895BD9A0895BD980895C49A77
S11311A00895C498089598B380E1892788BB089569
S11311B0BC9A0895BC98089586B382958170089569
S11311C0C49A0895C498089598B380E1892788BB88
S11311D00895BC9A0895BC980895C39A0895C39835
S11311E0089598B388E0892788BB0895BB9A089529
S11311F0BB98089586B383FB882780F90895C39A22
S11312000895C398089598B388E0892788BB089502
S1131210BB9A0895BB980895C29A0895C2980895F8
S113122098B384E0892788BB0895BA9A0895BA9838
S1131230089586B382FB882780F90895C29A089599
S1131240C298089598B384E0892788BB0895BA9A10
S11312500895BA980895C19A0895C198089598B3C5
S113126082E0892788BB0895B99A0895B9980895AA
S113127086B3869581700895C19A0895C19808959A
S113128098B382E0892788BB0895B99A0895B998DC
S11312900895C09A0895C098089598B381E0892765
S11312A088BB0895B89A0895B898089586B3817054
S11312B00895C09A0895C098089598B381E0892745
S11312C088BB0895B89A0895B8980895DA9A08954D
S11312D0DA9808959BB384E089278BBB0895D29A4A
S11312E00895D298089589B382FB882780F90895D8
S11312F0DA9A0895DA9808959BB384E089278BBB22
S11313000895D29A0895D2980895D99A0895D998AB
S113131008959BB382E089278BBB0895D19A0895E1
S1131320D198089589B3869581700895D99A0895BE
S1131330D99808959BB382E089278BBB0895D19AED
S11313400895D1980895D89A0895D89808959BB38C
S113135081E089278BBB0895D09A0895D098089589
S113136089B381700895D89A0895D89808959BB345
S113137081E089278BBB0895D09A0895D098089569
S11313800C947D190C947D190C947D190C947D1981
S11313900C947D190C947D190C947D190C947D1971
S11313A00C947D190C947D190C947D190C947D1961
S11313B00C947D190C947D190C947D19DC01ED912C
S11313C0FC9161110AC00088F189E02DB8E0E73191
S11313D0FB0711F49398089509940684F785E02D8A
S11313E0B8E0E531FB07C1F7939A0895DC01ED916C
S11313F0FC9161110AC00088F189E02DB9E0E53B58
S1131400FB0711F4D898089509940684F785E02D14
S1131410B9E0E33BFB07C1F7D89A0895DC01ED91ED
S1131420FC9161110AC00088F189E02DB8E0E43C28
S1131430FB0711F4C598089509940684F785E02DF7
S1131440B8E0E23CFB07C1F7C59A0895DC01ED91D1
S1131450FC9161110AC00088F189E02DB8E0EB34F9
S1131460FB0711F49698089509940684F785E02DF6
S1131470B8E0E934FB07C1F7969A0895DC01ED91D1
S1131480FC9161110AC00088F189E02DB9E0EE33C6
S1131490FB0711F4C198089509940684F785E02D9B
S11314A0B9E0EC33FB07C1F7C19A0895DC01ED9173
S11314B0FC9161110AC00088F189E02DB8E0E133A4
S11314C0FB0711F49498089509940684F785E02D98
S11314D0B8E0EF32FB07C1F7949A0895DC01ED916F
S11314E0FC9161110AC00088F189E02DB9E0E13076
S11314F0FB0711F4C398089509940684F785E02D39
S1131500B8E0EF3FFB07C1F7C39A0895DC01ED9102
S1131510FC9161110AC00088F189E02DB9E0E03244
S1131520FB0711F4C298089509940684F785E02D09
S1131530B9E0EE31FB07C1F7C29A0895DC01ED91E1
S1131540FC9161110AC00088F189E02DB8E0E73808
S1131550FB0711F4C798089509940684F785E02DD4
S1131560B8E0E538FB07C1F7C79A0895DC01ED91AF
S1131570FC9161110AC00088F189E02DB8E0E53AD8
S1131580FB0711F4C698089509940684F785E02DA5
S1131590B8E0E33AFB07C1F7C69A0895DC01ED9180
S11315A0FC9161110AC00088F189E02DB8E0EA36A7
S11315B0FB0711F49598089509940684F785E02DA6
S11315C0B8E0E836FB07C1F7959A0895DC01ED9180
S11315D0FC9161110AC00088F189E02DB9E0EA3775
S11315E0FB0711F4DA98089509940684F785E02D31
S11315F0B9E0E837FB07C1F7DA9A0895DC01ED9109
S1131600FC9161110AC00088F189E02DB8E0E23E46
S1131610FB0711F4C498089509940684F785E02D16
S1131620B8E0E03EFB07C1F7C49A0895DC01ED91F0
S1131630FC9161110AC00088F189E02DB9E0EB3515
S1131640FB0711F4C098089509940684F785E02DEA
S1131650B9E0E935FB07C1F7C09A0895DC01ED91C3
S1131660FC9161110AC00088F189E02DB9E0E839E4
S1131670FB0711F4D998089509940684F785E02DA1
S1131680B9E0E639FB07C1F7D99A08952F923F9242
S11316904F925F926F927F928F929F92AF92BF927E
S11316A0CF92DF92EF92FF920F931F93CF93DF932A
S11316B0CDB7DEB76C970FB6F894DEBF0FBECDBFC3
S11316C08C01562E4AE150E060E070E0CE010196B4
S11316D00E94151AD8018D919C91DC01ED91FC9129
S11316E00088F189E02D0995F801868D8FB9779BE3
S11316F0FECF80EB8FB9779BFECFD8015F968C919C
S11317008FB9779BFECFF80180819181DC01ED9147
S1131710FC910684F785E02D09951FB8779BFECFD1
S1131720F80180819181DC01ED91FC910684F785BB
S1131730E02D0995B980BB2009F443C04E01F2E0C5
S11317408F0E911CD8018D919C91DC01ED91FC913F
S11317500684F785E02D09958B2D90E088976C0120
S1131760CC0CDD1CCC0CDD1C8C0D9D1DFC01E95D3D
S1131770FF4F7F019C01245D3F4F690130E2B316A6
S113178011F40C941C16C7010E94251A8FB9779B7B
S1131790FECF8FEFE81AF80AEC14FD0479F71FB8AE
S11317A0779BFECFD8018D919C91DC01ED91FC914A
S11317B00088F189E02D0995F401B1904F01B11031
S11317C0C1CFF80180819181DC01ED91FC91008809
S11317D0F189E02D099543E050E064E270E0CE0128
S11317E001960E94151AF80180819181DC01ED9126
S11317F0FC910088F189E02D0995F801868D8FB957
S1131800779BFECF81EB8FB9779BFECFD8015F9694
S11318108C918FB9779BFECFF80180819181DC0197
S1131820ED91FC910684F785E02D09951FB8779B0F
S1131830FECFF80180819181DC01ED91FC91068459
S1131840F785E02D09959980992009F443C05E013C
S1131850B2E0AB0EB11CF80180819181DC01ED9105
S1131860FC910684F785E02D0995892D90E08897F1
S11318706C01CC0CDD1CCC0CDD1C8C0D9D1DFC0105
S1131880E95DFF4F7F019C01245D3F4F690130E218
S1131890931611F40C942916C7010E94251A8FB9C6
S11318A0779BFECF8FEFE81AF80AEC14FD0479F762
S11318B01FB8779BFECFD8018D919C91DC01ED91EF
S11318C0FC910088F189E02D0995F50191905F0163
S11318D09110C1CFF80180819181DC01ED91FC91DF
S11318E00088F189E02D09956BB2F801808191811E
S11318F0DC01ED91FC910684F785E02D09953BEC24
S1131900A32E31E0B32E40EDE42E41E0F42E650128
S1131910C6010E94251A8FB9779BFECFFFEFCF1A1D
S1131920DF0A20EDC21621E0D20691F71FB8779B9B
S1131930FECFD8018D919C91DC01ED91FC91008842
S1131940F189E02D0995712C812C912CF80180816D
S11319509181DC01ED91FC910684F785E02D0995D8
S1131960C301082C02C0959587950A94E2F7837009
S1131970805D90E088976C01CC0CDD1CCC0CDD1CE8
S11319808C0D9D1DFC01E95DFF4F1F019C01245D31
S11319903F4F6901C1010E94251A8FB9779BFECF81
S11319A03FEF231A330A2C143D04A1F71FB8779B89
S11319B0FECFD8018D919C91DC01ED91FC910088C2
S11319C0F189E02D0995B2E08B0E911CE8E08E16AA
S11319D0910409F0BBCFD8018D919C91DC01ED916C
S11319E0FC910684F785E02D0995ABECCA2EA1E0A5
S11319F0DA2EC6010E94251A8FB9779BFECFBFEF5E
S1131A00CB1ADB0AEC14FD04A1F71FB8779BFECFB9
S1131A10F80180819181DC01ED91FC910088F189CC
S1131A20E02D09956AB2F80180819181DC01ED9184
S1131A30FC910684F785E02D0995FBECCF2EF1E0AF
S1131A40DF2EC6010E94251A8FB9779BFECFBFEF08
S1131A50CB1ADB0AEC14FD04A1F71FB8779BFECF69
S1131A60F80180819181DC01ED91FC910088F1897C
S1131A70E02D0995712C812C912CF80180819181A4
S1131A80DC01ED91FC910684F785E02D0995C301F5
S1131A90082C02C0959587950A94E2F78370805DBF
S1131AA090E088976C01CC0CDD1CCC0CDD1C8C0DFB
S1131AB09D1DFC01E95DFF4F1F019C01245D3F4F0B
S1131AC06901C1010E94251A8FB9779BFECF3FEFB0
S1131AD0231A330A2C143D04A1F71FB8779BFECFB9
S1131AE0D8018D919C91DC01ED91FC910088F189E4
S1131AF0E02D0995B2E08B0E911CE8E08E1691045E
S1131B0009F0BBCFD8018D919C91DC01ED91FC9142
S1131B100684F785E02D09957BECC72E71E0D72E5E
S1131B20C6010E94251A8FB9779BFECFBFEFCB1A4F
S1131B30DB0AEC14FD04A1F71FB8779BFECFF80174
S1131B4080819181DC01ED91FC910088F189E02D87
S1131B50099569B2F80180819181DC01ED91FC91D4
S1131B600684F785E02D09956BECC62E61E0D62E30
S1131B70C6010E94251A8FB9779BFECFBFEFCB1AFF
S1131B80DB0AEC14FD04A1F71FB8779BFECFF80124
S1131B9080819181DC01ED91FC910088F189E02D37
S1131BA00995712C812C912CF80180819181DC01A3
S1131BB0ED91FC910684F785E02D0995C301082C6D
S1131BC002C0959587950A94E2F78370805D90E052
S1131BD088976C01CC0CDD1CCC0CDD1C8C0D9D1D80
S1131BE0FC01E95DFF4F1F019C01245D3F4F69012A
S1131BF0C1010E94251A8FB9779BFECF3FEF231AAC
S1131C00330A2C143D04A1F71FB8779BFECFD801EB
S1131C108D919C91DC01ED91FC910088F189E02D7E
S1131C200995B2E08B0E911CE8E08E16910409F040
S1131C30BBCFD8018D919C91DC01ED91FC91068480
S1131C40F785E02D09954BECC42E41E0D42EC60156
S1131C500E94251A8FB9779BFECFBFEFCB1ADB0A00
S1131C60EC14FD04A1F71FB8779BFECFF801808127
S1131C709181DC01ED91FC910088F189E02D0995B9
S1131C8043E050E061E270E0CE0101960E94151A33
S1131C90F80180819181DC01ED91FC910088F1894A
S1131CA0E02D0995F801868D8FB9779BFECF82EBE5
S1131CB08FB9779BFECFD8015F968C918FB9779BB4
S1131CC0FECFF80180819181DC01ED91FC910684C5
S1131CD0F785E02D09951FB8779BFECFF801808129
S1131CE09181DC01ED91FC910684F785E02D099545
S1131CF04980442009F442C04E01B2E08B0E911C8D
S1131D00F80180819181DC01ED91FC910684F785D5
S1131D10E02D0995842D90E088976C01CC0CDD1C96
S1131D20CC0CDD1C8C0D9D1DFC01E95DFF4F3F01BA
S1131D309C01245D3F4F690130E2431609F471C7E9
S1131D40C3010E94251A8FB9779BFECF8FEF681AC3
S1131D50780A6C147D0481F71FB8779BFECFD801F5
S1131D608D919C91DC01ED91FC910088F189E02D2D
S1131D700995F40141904F014110C2CFF8018081CF
S1131D809181DC01ED91FC910088F189E02D0995A8
S1131D9068B2F80180819181DC01ED91FC910684A7
S1131DA0F785E02D09953BECC32E31E0D32EC60117
S1131DB00E94251A8FB9779BFECFFFEFCF1ADF0A57
S1131DC0EC14FD04A1F71FB8779BFECFD8018D91C9
S1131DD09C91DC01ED91FC910088F189E02D09953D
S1131DE0712C812C912CF80180819181DC01ED9181
S1131DF0FC910684F785E02D0995C301082C02C0E7
S1131E00959587950A94E2F78370805D90E08897B2
S1131E106C01CC0CDD1CCC0CDD1C8C0D9D1DFC015F
S1131E20E95DFF4F1F019C01245D3F4F6901C10122
S1131E300E94251A8FB9779BFECF3FEF231A330AEE
S1131E402C143D04A1F71FB8779BFECFD8018D91C8
S1131E509C91DC01ED91FC910088F189E02D0995BC
S1131E60B2E08B0E911CE8E08E16910409F0BBCF12
S1131E70D8018D919C91DC01ED91FC910684F7854C
S1131E80E02D0995ABECCA2EA1E0DA2EC6010E9422
S1131E90251A8FB9779BFECFBFEFCB1ADB0AEC1460
S1131EA0FD04A1F71FB8779BFECFF80180819181D3
S1131EB0DC01ED91FC910088F189E02D099567B270
S1131EC0F80180819181DC01ED91FC910684F78514
S1131ED0E02D0995FBECCF2EF1E0DF2EC6010E9428
S1131EE0251A8FB9779BFECFBFEFCB1ADB0AEC1410
S1131EF0FD04A1F71FB8779BFECFF8018081918183
S1131F00DC01ED91FC910088F189E02D0995712C9B
S1131F10812C912CF80180819181DC01ED91FC915F
S1131F200684F785E02D0995C301082C02C0959518
S1131F3087950A94E2F78370805D90E088976C013E
S1131F40CC0CDD1CCC0CDD1C8C0D9D1DFC01E95D55
S1131F50FF4F1F019C01245D3F4F6901C1010E9495
S1131F60251A8FB9779BFECF3FEF231A330A2C141F
S1131F703D04A1F71FB8779BFECFD8018D919C91AA
S1131F80DC01ED91FC910088F189E02D0995B2E026
S1131F908B0E911CE8E08E16910409F0BBCFD8019A
S1131FA08D919C91DC01ED91FC910684F785E02DE7
S1131FB009957BECC72E71E0D72EC6010E94251A25
S1131FC08FB9779BFECFBFEFCB1ADB0AEC14FD046D
S1131FD0A1F71FB8779BFECFF80180819181DC01C6
S1131FE0ED91FC910088F189E02D099566B2F80124
S1131FF080819181DC01ED91FC910684F785E02DCF
S113200009956BECC62E61E0D62EC6010E94251AF6
S11320108FB9779BFECFBFEFCB1ADB0AEC14FD041C
S1132020A1F71FB8779BFECFF80180819181DC0175
S1132030ED91FC910088F189E02D0995712C812C9A
S1132040912CF80180819181DC01ED91FC91068451
S1132050F785E02D0995C301082C02C09595879555
S11320600A94E2F78370805D90E088976C01CC0C51
S1132070DD1CCC0CDD1C8C0D9D1DFC01E95DFF4FAE
S11320801F019C01245D3F4F6901C1010E94251A73
S11320908FB9779BFECF3FEF231A330A2C143D04EC
S11320A0A1F71FB8779BFECFD8018D919C91DC01DD
S11320B0ED91FC910088F189E02D0995B2E08B0E39
S11320C0911CE8E08E16910409F0BBCFD8018D91E4
S11320D09C91DC01ED91FC910684F785E02D099536
S11320E04BECC42E41E0D42EC6010E94251A8FB9B0
S11320F0779BFECFBFEFCB1ADB0AEC14FD04A1F7EC
S11321001FB8779BFECFF80180819181DC01ED91AE
S1132110FC910088F189E02D099543E050E06EE1DF
S113212070E0CE0101960E94151AF8018081918118
S1132130DC01ED91FC910088F189E02D0995F8010D
S1132140868D8FB9779BFECF83EB8FB9779BFECFBC
S1132150D8015F968C918FB9779BFECFF80180816F
S11321609181DC01ED91FC910684F785E02D0995C0
S11321701FB8779BFECFF80180819181DC01ED913E
S1132180FC910684F785E02D09954980442009F4E3
S113219042C04E01B2E08B0E911CF8018081918106
S11321A0DC01ED91FC910684F785E02D0995842DE1
S11321B090E088976C01CC0CDD1CCC0CDD1C8C0DE4
S11321C09D1DFC01E95DFF4F3F019C01245D3F4FD4
S11321D0690130E2431609F419C5C3010E94251AA6
S11321E08FB9779BFECF8FEF681A780A6C147D0441
S11321F081F71FB8779BFECFD8018D919C91DC01AC
S1132200ED91FC910088F189E02D0995F40141904C
S11322104F014110C2CFF80180819181DC01ED9121
S1132220FC910088F189E02D099565B2F80180815F
S11322309181DC01ED91FC910684F785E02D0995EF
S11322403BECC32E31E0D32EC6010E94251A8FB970
S1132250779BFECFFFEFCF1ADF0AEC14FD04A1F742
S11322601FB8779BFECFD8018D919C91DC01ED9135
S1132270FC910088F189E02D0995712C812C912C19
S1132280F80180819181DC01ED91FC910684F78550
S1132290E02D0995C301082C02C0959587950A94F1
S11322A0E2F78370805D90E088976C01CC0CDD1CB4
S11322B0CC0CDD1C8C0D9D1DFC01E95DFF4F1F0145
S11322C09C01245D3F4F6901C1010E94251A8FB909
S11322D0779BFECF3FEF231A330A2C143D04A1F75A
S11322E01FB8779BFECFD8018D919C91DC01ED91B5
S11322F0FC910088F189E02D0995B2E08B0E911CC8
S1132300E8E08E16910409F0BBCFD8018D919C9121
S1132310DC01ED91FC910684F785E02D0995ABEC89
S1132320CA2EA1E0DA2EC6010E94251A8FB9779B26
S1132330FECFBFEFCB1ADB0AE0EDCE16E1E0DE06FE
S113234091F71FB8779BFECFD8018D919C91DC014A
S1132350ED91FC910088F189E02D099564B2F801B2
S113236080819181DC01ED91FC910684F785E02D5B
S11323700995FBECCF2EF1E0DF2EC6010E94251A51
S11323808FB9779BFECFBFEFCB1ADB0AEC14FD04A9
S1132390A1F71FB8779BFECFF80180819181DC0102
S11323A0ED91FC910088F189E02D0995712C812C27
S11323B0912CF80180819181DC01ED91FC910684DE
S11323C0F785E02D0995C301082C02C095958795E2
S11323D00A94E2F78370805D90E088976C01CC0CDE
S11323E0DD1CCC0CDD1C8C0D9D1DFC01E95DFF4F3B
S11323F01F019C01245D3F4F6901C1010E94251A00
S11324008FB9779BFECF3FEF231A330A2C143D0478
S1132410A1F71FB8779BFECFD8018D919C91DC0169
S1132420ED91FC910088F189E02D0995B2E08B0EC5
S1132430911CE8E08E16910409F0BBCFD8018D9170
S11324409C91DC01ED91FC910684F785E02D0995C2
S11324507BECC72E71E0D72EC6010E94251A8FB9D6
S1132460779BFECFBFEFCB1ADB0AEC14FD04A1F778
S11324701FB8779BFECFF80180819181DC01ED913B
S1132480FC910088F189E02D099563B2F8018081FF
S11324909181DC01ED91FC910684F785E02D09958D
S11324A06BECC62E61E0D62EC6010E94251A8FB9A8
S11324B0779BFECFBFEFCB1ADB0AEC14FD04A1F728
S11324C01FB8779BFECFF80180819181DC01ED91EB
S11324D0FC910088F189E02D0995712C812C912CB7
S11324E0F80180819181DC01ED91FC910684F785EE
S11324F0E02D0995C301082C02C0959587950A948F
S1132500E2F78370805D90E088976C01CC0CDD1C51
S1132510CC0CDD1C8C0D9D1DFC01E95DFF4F1F01E2
S11325209C01245D3F4F6901C1010E94251A8FB9A6
S1132530779BFECF3FEF231A330A2C143D04A1F7F7
S11325401FB8779BFECFD8018D919C91DC01ED9152
S1132550FC910088F189E02D0995B2E08B0E911C65
S1132560E8E08E16910409F0BBCFD8018D919C91BF
S1132570DC01ED91FC910684F785E02D09954BEC87
S1132580C42E41E0D42EC6010E94251A8FB9779B30
S1132590FECFBFEFCB1ADB0AEC14FD04A1F71FB882
S11325A0779BFECFF80180819181DC01ED91FC9154
S11325B00088F189E02D099543E050E06BE170E07B
S11325C0CE0101960E94151AF80180819181DC01E7
S11325D0ED91FC910088F189E02D0995F801868D33
S11325E08FB9779BFECF84EB8FB9779BFECFD80151
S11325F05F968C918FB9779BFECFF8018081918192
S1132600DC01ED91FC910684F785E02D09951FB856
S1132610779BFECFF80180819181DC01ED91FC91E3
S11326200684F785E02D09954980442009F442C0C9
S11326304E01B2E08B0E911CF80180819181DC0186
S1132640ED91FC910684F785E02D0995842D90E0A9
S113265088976C01CC0CDD1CCC0CDD1C8C0D9D1DF5
S1132660FC01E95DFF4F3F019C01245D3F4F69017F
S113267030E2431609F4BFC2C3010E94251A8FB980
S1132680779BFECF8FEF681A780A6C147D0481F76C
S11326901FB8779BFECFD8018D919C91DC01ED9101
S11326A0FC910088F189E02D0995F40141904F01D6
S11326B04110C2CFF80180819181DC01ED91FC9140
S11326C00088F189E02D099562B2F8018081918139
S11326D0DC01ED91FC910684F785E02D09953BEC36
S11326E0C32E31E0D32EC6010E94251A8FB9779BE1
S11326F0FECFFFEFCF1ADF0AEC14FD04A1F71FB8D9
S1132700779BFECFD8018D919C91DC01ED91FC91DA
S11327100088F189E02D0995712C812C912CF80108
S113272080819181DC01ED91FC910684F785E02D97
S11327300995C301082C02C0959587950A94E2F780
S11327408370805D90E088976C01CC0CDD1CCC0C10
S1132750DD1C8C0D9D1DFC01E95DFF4F1F019C01DB
S1132760245D3F4F6901C1010E94251A8FB9779BEF
S1132770FECF3FEF231A330A2C143D04A1F71FB8F0
S1132780779BFECFD8018D919C91DC01ED91FC915A
S11327900088F189E02D0995B2E08B0E911CE8E0E8
S11327A08E16910409F0BBCFD8018D919C91DC0168
S11327B0ED91FC910684F785E02D0995ABECCA2ECA
S11327C0A1E0DA2EC6010E94251A8FB9779BFECFAD
S11327D0BFEFCB1ADB0AEC14FD04A1F71FB8779BFB
S11327E0FECFF80180819181DC01ED91FC9100889C
S11327F0F189E02D099561B2F80180819181DC01B4
S1132800ED91FC910684F785E02D0995FBECCF2E24
S1132810F1E0DF2EC6010E94251A8FB9779BFECF07
S1132820BFEFCB1ADB0AEC14FD04A1F71FB8779BAA
S1132830FECFF80180819181DC01ED91FC9100884B
S1132840F189E02D0995712C812C912CF80180815E
S11328509181DC01ED91FC910684F785E02D0995C9
S1132860C301082C02C0959587950A94E2F78370FA
S1132870805D90E088976C01CC0CDD1CCC0CDD1CD9
S11328808C0D9D1DFC01E95DFF4F1F019C01245D22
S11328903F4F6901C1010E94251A8FB9779BFECF72
S11328A03FEF231A330A2C143D04A1F71FB8779B7A
S11328B0FECFD8018D919C91DC01ED91FC910088B3
S11328C0F189E02D0995B2E08B0E911CE8E08E169B
S11328D0910409F0BBCFD8018D919C91DC01ED915D
S11328E0FC910684F785E02D09957BECC72E71E0F9
S11328F0D72EC6010E94251A8FB9779BFECFBFEF52
S1132900CB1ADB0AEC14FD04A1F71FB8779BFECFAA
S1132910F80180819181DC01ED91FC910088F189BD
S1132920E02D099560B2F80180819181DC01ED917F
S1132930FC910684F785E02D09956BECC62E61E0C9
S1132940D62EC6010E94251A8FB9779BFECFBFEF02
S1132950CB1ADB0AEC14FD04A1F71FB8779BFECF5A
S1132960F80180819181DC01ED91FC910088F1896D
S1132970E02D0995712C812C912CF8018081918195
S1132980DC01ED91FC910684F785E02D0995C301E6
S1132990082C02C0959587950A94E2F78370805DB0
S11329A090E088976C01CC0CDD1CCC0CDD1C8C0DEC
S11329B09D1DFC01E95DFF4F1F019C01245D3F4FFC
S11329C06901C1010E94251A8FB9779BFECF3FEFA1
S11329D0231A330A2C143D04A1F71FB8779BFECFAA
S11329E0D8018D919C91DC01ED91FC910088F189D5
S11329F0E02D0995B2E08B0E911CE8E08E1691044F
S1132A0009F0BBCFD8018D919C91DC01ED91FC9133
S1132A100684F785E02D09954BECC42E41E0D42EB5
S1132A20C6010E94251A8FB9779BFECFBFEFCB1A40
S1132A30DB0AEC14FD04A1F71FB8779BFECFF80165
S1132A4080819181DC01ED91FC910088F189E02D78
S1132A500995F80180819181DC01ED91FC91008858
S1132A60F189E02D0995F801868D8FB9779BFECF0A
S1132A7085EB8FB9779BFECFD8015F968C918FB988
S1132A80779BFECFF80180819181DC01ED91FC916F
S1132A900684F785E02D09951FB8779BFECFF801D2
S1132AA080819181DC01ED91FC910684F785E02D14
S1132AB009953BECC32E31E0D32EC6010E94251AA2
S1132AC08FB9779BFECFBFEFCB1ADB0AEC14FD0462
S1132AD0A1F71FB8779BFECFF80180819181DC01BB
S1132AE0ED91FC910088F189E02D0995652C712CFC
S1132AF0812C912CF80180819181DC01ED91FC9174
S1132B000684F785E02D0995C301082C02C095952C
S1132B1087950A94E2F78370805D90E088976C0152
S1132B20CC0CDD1CCC0CDD1C8C0D9D1DFC01E95D69
S1132B30FF4F2F019C01245D3F4F6901C2010E9498
S1132B40251A8FB9779BFECF3FEF431A530A4C14D3
S1132B505D04A1F71FB8779BFECFD8018D919C919E
S1132B60DC01ED91FC910088F189E02D0995B2E03A
S1132B708B0E911CE8E08E16910409F0BBCFD801AE
S1132B808D919C91DC01ED91FC910684F785E02DFB
S1132B900995C5010E94251A8FB9779BFECFBFEF17
S1132BA0AB1ABB0AEA14FB04A1F71FB8779BFECF4C
S1132BB0F80180819181DC01ED91FC910088F1891B
S1132BC0E02D09956C960FB6F894DEBF0FBECDBF0D
S1132BD0DF91CF911F910F91FF90EF90DF90CF90F5
S1132BE0BF90AF909F908F907F906F905F904F9029
S1132BF03F902F9008951FB8779BFECF8FEF681AF0
S1132C00780A6C147D0409F033CD42CD1FB8779B4C
S1132C10FECF8FEF681A780A6C147D0409F0D9CAC4
S1132C20E8CA1FB8779BFECF8FEF681A780A6C1436
S1132C307D0409F081C890C81FB8779BFECF8FEF41
S1132C40E81AF80AEC14FD0411F00C94BE0B0C9471
S1132C50CF0B1FB8779BFECF8FEFE81AF80AEC145E
S1132C60FD0411F00C94470C0C94580C0E94B3030F
S1132C70CFEF80918B0290918C02DC01ED91FC915D
S1132C800088F189E02D0995809185028093860260
S1132C90CFB9779BFECF8FB190E0880F991F880F33
S1132CA0991F880F991F80938502CFB9779BFECF18
S1132CB08FB190E09595879595958795959587958E
S1132CC0959587959595879520918502822B80937C
S1132CD0850280918B0290918C02DC01ED91FC9134
S1132CE00684F785E02D09959091860280918502EE
S1132CF020918702913C40F18F3330F52F5F209370
S1132D00870290E0922B20918802821B9109909374
S1132D108402809383028091990290919A02DC014B
S1132D20ED91FC910088F189E02D09950E9400073E
S1132D308091990290919A02DC01ED91FC910684B4
S1132D40F785E02D099595CF813CD8F29F33C8F6DD
S1132D50215020938702D5CFE6ECF2E0108A20E1DF
S1132D60DF01822F1D928A95E9F7E3E9F2E080E81A
S1132D70868790EB978780EF808B81E8818B84EA4C
S1132D80828B85EA838B86EA848B87EA858B8EEA3D
S1132D90868B8FEA878B83ED808F8AED818F8BED15
S1132DA0828F85ED838F89ED848F88EA858F82E019
S1132DB0868F278F20E420A320E221A321E222A3EF
S1132DC093A390EC94A398EC95A390EA96A39DEA20
S1132DD097A39BE890A781A78FE282A78EE283A79F
S1132DE083EA84A786E285A787E286A789E287A784
S1132DF08AE280AB84E790E09183808386E790E069
S1132E00938382836AE670E0738762874CE650E0BE
S1132E105583448382E790E0978386832EE630E0EF
S1132E203587248788E690E091878087E3E8F2E09D
S1132E30118210821282138214821582758764872C
S1132E405783468340E750E051874087378726877A
S1132E5093878287EBE7F2E088E790E091838083B1
S1132E608AE790E0938382838CE790E09583848360
S1132E7010927A02109279021092760210927502E0
S1132E801092720210927102089508950E945A17C6
S1132E900C943B180E94341858F00E942D1840F0EE
S1132EA029F45F3F29F00C94241851110C946F18E5
S1132EB00C942A180E944C1868F39923B1F35523F3
S1132EC091F3951B550BBB27AA2762177307840739
S1132ED038F09F5F5F4F220F331F441FAA1FA9F3CF
S1132EE035D00E2E3AF0E0E832D091505040E695BD
S1132EF0001CCAF72BD0FE2F29D0660F771F881F1E
S1132F00BB1F261737074807AB07B0E809F0BB0B10
S1132F10802DBF01FF2793585F4F3AF09E3F510524
S1132F2078F00C9424180C946F185F3FE4F3983EE7
S1132F30D4F3869577956795B795F7959F5FC9F70D
S1132F40880F911D9695879597F90895E1E0660F8E
S1132F50771F881FBB1F621773078407BA0720F007
S1132F60621B730B840BBA0BEE1F88F7E095089570
S1132F700E94541888F09F5798F0B92F9927B75199
S1132F80B0F0E1F0660F771F881F991F1AF0BA9509
S1132F90C9F714C0B13091F00E946E18B1E00895E1
S1132FA00C946E18672F782F8827B85F39F0B93FD3
S1132FB0CCF3869577956795B395D9F73EF49095BC
S1132FC08095709561957F4F8F4F9F4F0895E8943A
S1132FD009C097FB3EF490958095709561957F4F5D
S1132FE08F4F9F4F9923A9F0F92F96E9BB2793950B
S1132FF0F695879577956795B795F111F8CFFAF41B
S1133000BB0F11F460FF1BC06F5F7F4F8F4F9F4F4B
S113301016C0882311F096E911C0772321F09EE8A9
S1133020872F762F05C0662371F096E8862F70E00F
S113303060E02AF09A95660F771F881FDAF7880FE9
S11330409695879597F9089597F99F6780E870E0BA
S113305060E008959FEF80EC089500240A9416160A
S1133060170618060906089500240A941216130672
S1133070140605060895092E0394000C11F4882300
S113308052F0BB0F40F4BF2B11F460FF04C06F5F1C
S11330907F4F8F4F9F4F089557FD9058440F551FF2
S11330A059F05F3F71F04795880F97FB991F61F0C6
S11330B09F3F79F087950895121613061406551F3D
S11330C0F2CF4695F1DF08C0161617061806991FA9
S11330D0F1CF86957105610508940895E894BB279E
S11330E066277727CB0197F908950E9488180C94D6
S11330F03B180E942D1838F00E94341820F09523B4
S113310011F00C9424180C942A1811240C946F18A0
S11331100E944C1870F3959FC1F3950F50E0551F12
S1133120629FF001729FBB27F00DB11D639FAA2718
S1133130F00DB11DAA1F649F6627B00DA11D661F67
S1133140829F2227B00DA11D621F739FB00DA11D88
S1133150621F839FA00D611D221F749F3327A00D42
S1133160611D231F849F600D211D822F762F6A2FDE
S113317011249F5750409AF0F1F088234AF0EE0F43
S1133180FF1FBB1F661F771F881F91505040A9F770
S11331909E3F510580F00C9424180C946F185F3FE7
S11331A0E4F3983ED4F3869577956795B795F795AC
S11331B0E7959F5FC1F7FE2B880F911D9695879524
S11331C097F90895EE0FFF1F0590F491E02D0994EF
S11331D0CF93DF938230910510F482E090E0E09188
S11331E0D902F091DA0220E030E0C0E0D0E030977C
S11331F011F14081518148175907C0F04817590708
S113320061F482819381209719F09B838A832BC078
S11332109093DA028093D90226C02115310519F062
S11332204217530718F49A01BE01DF01EF0102802F
S1133230F381E02DDCCF2115310509F1281B390B71
S11332402430310590F412968D919C911397611559
S1133250710521F0FB019383828304C09093DA0209
S11332608093D902FD01329644C0FD01E20FF31FA1
S113327081939193225031092D933C933AC020912C
S1133280D7023091D802232B41F420918000309151
S113329081003093D8022093D70220917E00309190
S11332A07F002115310541F42DB73EB740918200CE
S11332B050918300241B350BE091D702F091D80282
S11332C0E217F307A0F42E1B3F0B2817390778F0F9
S11332D0AC014E5F5F4F2417350748F04E0F5F1F58
S11332E05093D8024093D7028193919302C0E0E0B7
S11332F0F0E0CF01DF91CF9108950F931F93CF9307
S1133300DF93009709F48CC0FC0132971382128278
S11333100091D9021091DA020115110581F420817E
S11333203181820F931F2091D7023091D802281740
S1133330390779F5F093D802E093D70271C0D80128
S113334040E050E0AE17BF0750F412962D913C9127
S11333501397AD012115310509F1D901F3CF9D0171
S1133360DA013383228360817181860F971F82176C
S1133370930769F4EC0128813981260F371F2E5FEA
S11333803F4F318320838A819B8193838283452BA2
S113339029F4F093DA02E093D90242C01396FC9325
S11333A0EE931297ED01499159919E01240F351F17
S11333B0E217F30771F480819181840F951F0296BF
S11333C011969C938E938281938113969C938E93F2
S11333D01297E0E0F0E0D80112968D919C9113973A
S11333E0009719F0F8018C01F6CF8D919C9198010A
S11333F02E5F3F4F820F931F2091D7023091D80246
S11334002817390769F4309729F41092DA021092D8
S1133410D90202C0138212821093D8020093D702F9
S1133420DF91CF911F910F910895DC01CB01FC0135
S1133430E199FECF06C0FFBBEEBBE09A31960DB218
S11334400D9241505040B8F70895E199FECF9FBBCB
S11334508EBBE09A99278DB3089510E0C9E3D0E0BC
S113346004C0FE010E94E2182196CA33D107C9F7AD
S1073470F894FFCFFA
S1133474480228020802E801C801A8018801680179
S1133484480128010801E800C800A80088000000D9
S1133494DB02200000000000A309A509A709AC0968
S11334A4AE09F609B009B309B509B709BC09BE09DF
S11334B40708C009000000008509870989098E09E5
S11334C490092E0B9209960998099A099F09A10952
S11334D40608C20900000000660968096A096F0940
S11334E47109E60A730978097A097C09810983094F
S11334F40508C4090000000049094B094D09520993
S11335045409160B560959095B095D0962096409D2
S11335140408C609000000002B092D092F093409E9
S113352436093E0A38093C093E0940094509470958
S11335340308C809000000000C090E091009150944
S11335441709860A19091E092009220927092909C4
S11335540208CA0900000000ED08EF08F108F608A3
S1133564F8086E0AFA08FF080109030908090A0998
S11335740108CC0900000000CF08D108D308D808FA
S1133584DA08FE0ADC08E008E208E408E908EB08C3
S11335940008CE0900000000B008B208B408B90855
S11335A4BB080E0ABD08C208C408C608CB08CD0867
S11335B4FF07D009000000009108930895089A08B1
S11335C49C08B60A9E08A308A508A708AC08AE0878
S11335D4FE07D209000000007508770879087D0801
S11335E47F089E0A81088508870889088D088F0842
S11335F4FD07D40900000000560858085A085F085B
S11336046108CE0A630868086A086C0871087308BC
S1133614FC07D609000000003C083E0840084508A1
S11336244708260AF40749084B084D085208540869
S1133634FB07D809000000002208240826082B08E8
S11336442D08560AF0072F083108330838083A08B9
S1133654FA07DA090000000008080A080C0811082F
S11336641308DE09EB071508170819081E082008B3
S1073674F907DC0969
S9030000FC
