S0140000576865656C577261707065722E737265633A
S11300000C943A000C946E010C9462000C946200FF
S11300100C9462000C9462000C9462000C946200D4
S11300200C9462000C9462000C9462000C946200C4
S11300300C9462000C9462000C9462000C946200B4
S11300400C9462000C9462000C9462000C942601DF
S11300500C9462001001140118011C010A010D0125
S11300602001B601BA01BE01C201B001B301C6014B
S113007099164A1711241FBECFE5D4E0DEBFCDBFC9
S113008012E0A0E6B0E0EEE7F4E302C005900D92C2
S1130090A436B107D9F722E0A4E6B2E001C01D926C
S11300A0A23EB207E1F710E0C9E3D0E004C0219713
S11300B0FE010E94E718C833D107C9F70E94D7157B
S11300C00C94321A0C9400000F931F93CF938091D9
S11300D0810290918202DC01ED91FC910684F78506
S11300E0E02D099500008091810290918202DC014B
S11300F0ED91FC910088F189E02D09950FE010E065
S1130100C0E080917F0290918002DC01ED91FC912E
S11301100088F189E02D0995CC0F8091830290919C
S11301208402DC01ED91FC910484F585E02D0995B0
S1130130811101C0CF5F80917F0290918002DC0128
S1130140ED91FC910684F785E02D09950150110984
S1130150C1F6C0936702CF911F910F9108950F9339
S11301601F93CF9308E010E0C0E080917F0290914C
S11301708002DC01ED91FC910088F189E02D099564
S1130180CC0F8091830290918402DC01ED91FC916B
S11301900484F585E02D0995811101C0CF5F80911C
S11301A07F0290918002DC01ED91FC910684F78539
S11301B0E02D099501501109C1F6C0936802CF9151
S11301C01F910F91089540B380B390B343FBEE2782
S11301D0E0F9F0E0EE0FFF1FEE0FFF1F84FB222774
S11301E020F930E0220F331F2E2B96FB992790F92C
S11301F0E22FE92BE0936C028E2F90E0FC01319703
S1130200E730F10518F080EF85BB0895E65DFF4FF8
S11302100C94E71881EF85BB089589E985BB08959F
S11302208091880285BB08958091870285BB0895DB
S11302308091670285BB08958091680285BB08950B
S113024015BA08950C94ED180C9482191F920F920C
S11302500FB60F9211242F933F934F935F936F9395
S11302607F938F939F93AF93BF93EF93FF9390915B
S1130270DD02E92FF0E0EE0FFF1FEB52FD4FA081EE
S1130280B181109741F01296ED91FC911397CD0135
S113029009959091DD029F5F943098F01092DD02F1
S11302A0FF91EF91BF91AF919F918F917F916F914A
S11302B05F914F913F912F910F900FBE0F901F9020
S11302C018959093DD02ECCF8FEF84BB15BA11BA69
S11302D012BA80E48BBF83E085BF08951F920F920A
S11302E00FB60F9211242F933F934F938F939F93A5
S11302F0AF93BF93EF93FF9340B380B390B343FBAB
S1130300EE27E0F9F0E0EE0FFF1FEE0FFF1F84FB76
S1130310222720F930E0220F331F2E2B96FB99273A
S113032090F9E22FE92BE0936C028E2F90E0FC0110
S11303303197E730F10580F080EF85BBFF91EF91B5
S1130340BF91AF919F918F914F913F912F910F90BA
S11303500FBE0F901F901895EF5CFF4F0C94E71899
S113036081EF85BBEBCF89E985BBE8CF809188021B
S113037085BBE4CF8091870285BBE0CF8091670283
S113038085BBDCCF8091680285BBD8CF80918A027F
S113039085BBD4CF8091940290919502DC01ED91BC
S11303A0FC910088F189E02D099580918D0280935C
S11303B08E028FEF8FB9779BFECF8FB1809390021F
S11303C08295807F80938D028FEF8FB9779BFECFCC
S11303D08FB18093910282958F7090918D02892BB9
S11303E080938D028091940290919502DC01ED91AD
S11303F0FC910684F785E02D099590918E028091F9
S11304008D0220918F02913C18F08F3308F45CC068
S1130410813C28F09F3318F4215020938F0290E000
S1130420AC01440F551F90919102892F90E095954E
S113043087959595879595958795842B952B30E091
S1130440322F2227330F822B932B90938C0280938D
S11304508B022091890230918A022115310579F4A9
S113046020919C0230919D022817390788F5AC0130
S1130470421B530B9A0150938A0240938902821BB8
S1130480930B909388028093870240919E0250912F
S11304909F028417950740F4241B350B280F391F3E
S11304A030938A02209389024091A0025091A102C4
S11304B04817590740F4841B950B820F931F9093A0
S11304C08A028093890208952F5F20938F02A7CF19
S11304D0281B390B30938A0220938902D0CF84E6FB
S11304E090E090937E0280937D028FEA90E0909357
S11304F07A028093790283EE90E09093760280935F
S113050075028091D5029091D602892BA1F1809138
S1130510D7029091D802009709F447C02091D902DC
S11305203091DA02232B09F449C02091DB02309187
S1130530DC02232B09F448C0892BD1F18091D90224
S11305409091DA02892BB9F18091DB029091DC025F
S1130550892B09F0089583E090E0FC01EE0FFF1F62
S1130560EB52FD4F27E732E03183208390937802EA
S113057080937702089580E090E0FC01EE0FFF1F66
S1130580EB52FD4F2BE732E03183208390937C02C2
S113059080937B028091D5029091D602892B89F0B9
S11305A08091D7029091D802C7CF81E090E0E5CF47
S11305B081E090E0D2CF82E090E0CFCF82E090E083
S11305C0DCCF80E090E0C9CF83E090E0D6CF8F927B
S11305D09F92AF92BF92CF92DF92EF92FF920F93CE
S11305E01F93CF93DF938091940290919502DC0145
S11305F0ED91FC910088F189E02D099580918D029F
S113060080938E028FEF8FB9779BFECF8FB180934B
S113061090028295807F80938D028FEF8FB9779BB4
S1130620FECF8FB18093910282958F7090918D024D
S1130630892B80938D028091940290919502DC0124
S1130640ED91FC910684F785E02D099590918E0239
S113065060918D0280918F02913C18F06F3308F401
S113066097C0613C28F09F3318F4815080938F0227
S113067070E0660F771F2091910230E03595279541
S11306803595279535952795622B732B90E0982FF8
S11306908827990F682B792B70938C0260938B02B7
S11306A08091890290918A02009781F480919C0242
S11306B090919D028617970708F06EC09B01281B36
S11306C0390BC90130938A0220938902EB01C81BBC
S11306D0D90BD0938802C093870220919E02309157
S11306E09F02C217D30740F4821B930B8C0F9D1FEC
S11306F090938A02809389022091A0023091A102F2
S11307002C173D0748F4AE01421B530B840F951F71
S113071090938A02809389028091D3029091D402AB
S11307208C179D0740F166B577B50091D3021091FF
S1130730D40280E090E00E94EC176B017C01BE01C2
S113074080E090E00E94EC174B015C01B80180E06E
S113075090E00E94EC179B01AC01C501B4010E941A
S11307604B179B01AC01C701B6010E947A180E9485
S1130770BD177BBD6ABDDF91CF911F910F91FF9093
S1130780EF90DF90CF90BF90AF909F908F9008959F
S11307908F5F80938F026CCF861B970B90938A0296
S11307A08093890293CF8FEF8ABB84BB81BB87BBC5
S11307B088BB85BB82BB0895CF938FEF8ABB84BB74
S11307C081BB87BB88BB85BB82BB8091A80290910B
S11307D0A902DC01ED91FC910088F189E02D0995D5
S11307E08091A4029091A502DC01ED91FC91048812
S11307F0F589E02D09958091A2029091A302DC0174
S1130800ED91FC910488F589E02D09958091A80269
S11308109091A902DC01ED91FC910488F589E02D09
S113082009958091AC029091AD02DC01ED91FC91AF
S11308300688F789E02D09958091A6029091A70278
S1130840DC01ED91FC910488F589E02D09958091F6
S1130850AA029091AB02DC01ED91FC910488F58928
S1130860E02D09958091AE029091AF02DC01ED91EB
S1130870FC910488F589E02D09958091A802909156
S1130880A902DC01ED91FC910088F189E02D099524
S11308908091A4029091A502DC01ED91FC91068463
S11308A0F785E02D099583ED90E30197F1F700C0FA
S11308B000008091A4029091A502DC01ED91FC91CD
S11308C00088F189E02D099583ED90E30197F1F714
S11308D000C000008091A4029091A502DC01ED917A
S11308E0FC910684F785E02D09951DB86C9A6E9AE3
S11308F08EB18EB98091A2029091A302DC01ED9198
S1130900FC910088F189E02D09958091B8028FB996
S1130910779BFECF8091BF028FB9779BFECF8FE389
S11309208FB9779BFECF8091C2028FB9779BFECFA0
S11309308091C5028FB9779BFECF8091C0028260FF
S11309408FB9779BFECF8091C1028FB9779BFECF81
S11309508091C80281608FB9779BFECF8091B602E7
S11309608FB9779BFECF8091C9028FB9779BFECF59
S11309708091C3028FB9779BFECF1FB8779BFECFC0
S11309808091CA028FB9779BFECF81E38FB9779BA1
S1130990FECF83EC99E00197F1F700C0000080914D
S11309A0C7028FB9779BFECF8091BA028FB9779B2C
S11309B0FECF1FB8779BFECF8091BD028FB9779B86
S11309C0FECF8091B2028FB9779BFECF8091BE0299
S11309D08FB9779BFECF8FE18FB9779BFECF809144
S11309E0BB028FB9779BFECF82E18FB9779BFECF95
S11309F08091BC028FB9779BFECF80E48FB9779B3F
S1130A00FECF8091B3028FB9779BFECF8FEF8FB962
S1130A10779BFECF8091B4028FB9779BFECF8091F4
S1130A20B6028FB9779BFECF8091B9028FB9779BBD
S1130A30FECFC0EB8091A2029091A302DC01ED9164
S1130A40FC910088F189E02D09958091C0028FB94D
S1130A50779BFECFCFB9779BFECF8091C1028FB930
S1130A60779BFECF8091A2029091A302DC01ED91CD
S1130A70FC910684F785E02D099580E890E01FB885
S1130A80779BFECF0197D9F78091A2029091A302A0
S1130A90DC01ED91FC910088F189E02D0995CF5F8F
S1130AA0C83B41F68091A8029091A902DC01ED9126
S1130AB0FC910684F785E02D09958091940290912C
S1130AC09502DC01ED91FC910488F589E02D0995EE
S1130AD08091980290919902DC01ED91FC91068835
S1130AE0F789E02D09958091920290919302DC019F
S1130AF0ED91FC910488F589E02D09958091960289
S1130B0090919702DC01ED91FC910488F589E02D28
S1130B10099580919A0290919B02DC01ED91FC91E0
S1130B200488F589E02D09958091940290919502AD
S1130B30DC01ED91FC910684F785E02D09951DB843
S1130B406C9A6E9A8EB18EB98091940290919502AE
S1130B50DC01ED91FC910088F189E02D09958FEF7E
S1130B608FB9779BFECF8FEF8FB9779BFECF8091A4
S1130B70940290919502DC01ED91FC910684F78535
S1130B80E02D09958091940290919502DC01ED91FC
S1130B90FC910684F785E02D09958091A802909137
S1130BA0A902DC01ED91FC910088F189E02D099501
S1130BB084E690E090937E0280937D028FEA90E039
S1130BC090937A028093790283EE90E09093760278
S1130BD0809375028091D5029091D602892B09F4F5
S1130BE072C08091D7029091D802009709F4A6C0F0
S1130BF02091D9023091DA02232B09F49CC0209170
S1130C00DB023091DC02232B09F492C0892B09F416
S1130C108CC08091D9029091DA02892B09F47BC0AF
S1130C208091DB029091DC02892B09F471C084E08D
S1130C308CBF83B78E7F83BF83B7886083BF89B738
S1130C408E7F89BF89B7826089BF83B7887F83BF5E
S1130C5083B7846083BF789480917F0290918002EF
S1130C60DC01ED91FC910488F589E02D09958091D2
S1130C70810290918202DC01ED91FC910488F58956
S1130C80E02D09958091830290918402DC01ED911D
S1130C90FC910688F789E02D099580918102909155
S1130CA08202DC01ED91FC910088F189E02D099527
S1130CB08FEF84BB15BA11BA12BA80E48BBF83E0FC
S1130CC085BFCF91089580E090E0FC01EE0FFF1FF7
S1130CD0EB52FD4F2BE732E03183208390937C026B
S1130CE080937B028091D5029091D602892BB1F436
S1130CF080E090E0FC01EE0FFF1FEB52FD4F27E771
S1130D0032E03183208390937802809377028FCFEF
S1130D1083E090E0EFCF82E090E0ECCF8091D702C7
S1130D209091D802892B09F074CF81E090E0E2CF52
S1130D3083E090E0CACF82E090E0C7CF81E090E00A
S1130D40C4CFAF92BF92CF92DF92EF92FF920F93F4
S1130D501F93CF93DF9360916C0282EA92E00E942A
S1130D60E70A8091A2029091A302DC01ED91FC912B
S1130D700088F189E02D09958091C0028FB9779B95
S1130D80FECF86EB8FB9779BFECF8091C1028FB9DE
S1130D90779BFECF8091A2029091A302DC01ED919A
S1130DA0FC910684F785E02D09951FB8779BFECF4B
S1130DB0A0908702B09088028091A2029091A30231
S1130DC0DC01ED91FC910684F785E02D09959BECFF
S1130DD0E92E91E0F92EE701CE010E942A1A8FB97B
S1130DE0779BFECF2196B1E0C03DDB07A9F71FB882
S1130DF0779BFECF8091A2029091A302DC01ED913A
S1130E00FC910088F189E02D09950FE010E0CC24D5
S1130E10C394D12CC601002E02C0880F991F0A94D6
S1130E20E2F78A219B21892B09F45AC08091A202FE
S1130E309091A302DC01ED91FC910684F785E02DED
S1130E400995C4E5D0E0CE010E942A1A8FB9779B98
S1130E50FECF2196B0E0C935DB07A9F71FB8779B11
S1130E60FECF8091A2029091A302DC01ED91FC914E
S1130E700088F189E02D09950150110958F68091F7
S1130E80A2029091A302DC01ED91FC910684F78506
S1130E90E02D0995C7010E942A1A8FB9779BFECFCE
S1130EA0BFEFEB1AFB0A80EDE81681E0F80691F734
S1130EB01FB8779BFECF8091A2029091A302DC0120
S1130EC0ED91FC910088F189E02DDF91CF911F9184
S1130ED00F91FF90EF90DF90CF90BF90AF90099467
S1130EE08091A2029091A302DC01ED91FC91068411
S1130EF0F785E02D0995CFE4D0E0CE010E942A1AAF
S1130F008FB9779BFECF2196B0E0C435DB07A9F7F4
S1130F101FB8779BFECFA5CF80B383FB882780F9CA
S1130F20089580B382958170089580B386FB8827E5
S1130F3080F90895089508950895089508950895E9
S1130F4008950895089508950895089508950895B5
S1130F500895939A08959398089592B388E0892701
S1130F6082BB08958B9A08958B980895939A089557
S1130F709398089592B388E0892782BB08958B9A49
S1130F8008958B980895949A08959498089592B327
S1130F9080E1892782BB08958C9A08958C980895DE
S1130FA0949A08959498089592B380E1892782BB16
S1130FB008958C9A08958C980895969A0895969811
S1130FC0089592B380E4892782BB08958E9A089588
S1130FD08E980895969A08959698089592B380E409
S1130FE0892782BB08958E9A08958E980895959ABC
S1130FF008959598089592B380E2892782BB089555
S11310008D9A08958D98089580B385FB882780F97B
S11310100895959A08959598089592B380E2892742
S113102082BB08958D9A08958D980895C79A08955E
S1131030C798089588B3805888BB0895BF9A0895C7
S1131040BF98089581E0B79B80E00895C79A0895FA
S1131050C798089588B3805888BB0895BF9A0895A7
S1131060BF980895C69A0895C698089598B380E4E1
S1131070892788BB0895BE9A0895BE98089586B3BB
S113108086FB882780F90895C69A0895C69808951E
S113109098B380E4892788BB0895BE9A0895BE98C2
S11310A00895C59A0895C598089598B380E289274C
S11310B088BB0895BD9A0895BD98089586B385FBAD
S11310C0882780F90895C59A0895C598089598B316
S11310D080E2892788BB0895BD9A0895BD98089534
S11310E0C49A0895C498089598B380E1892788BB69
S11310F00895BC9A0895BC98089586B3829581702A
S11311000895C49A0895C498089598B380E18927EE
S113111088BB0895BC9A0895BC980895C39A08950D
S1131120C398089598B388E0892788BB0895BB9A2B
S11311300895BB98089586B383FB882780F90895A2
S1131140C39A0895C398089598B388E0892788BB03
S11311500895BB9A0895BB980895C29A0895C298B9
S1131160089598B384E0892788BB0895BA9A0895AE
S1131170BA98089586B382FB882780F90895C29AA5
S11311800895C298089598B384E0892788BB089588
S1131190BA9A0895BA980895C19A0895C19808957D
S11311A098B382E0892788BB0895B99A0895B998BD
S11311B0089586B3869581700895C19A0895C1985B
S11311C0089598B382E0892788BB0895B99A089551
S11311D0B9980895C09A0895C098089598B381E085
S11311E0892788BB0895B89A0895B898089586B356
S11311F081700895C09A0895C098089598B381E0C5
S1131200892788BB0895B89A0895B8980895DA9AFA
S11312100895DA9808959BB384E089278BBB0895D9
S1131220D29A0895D298089589B382FB882780F9C9
S11312300895DA9A0895DA9808959BB384E089278B
S11312408BBB0895D29A0895D2980895D99A089597
S1131250D99808959BB382E089278BBB0895D19ACE
S11312600895D198089589B3869581700895D99A7F
S11312700895D99808959BB382E089278BBB08957C
S1131280D19A0895D1980895D89A0895D898089530
S11312909BB381E089278BBB0895D09A0895D09899
S11312A0089589B381700895D89A0895D8980895B7
S11312B09BB381E089278BBB0895D09A0895D09879
S11312C008950C9482190C9482190C9482190C942C
S11312D082190C9482190C9482190C9482190C941E
S11312E082190C9482190C9482190C9482190C940E
S11312F082190C9482190C9482190C948219DC01C1
S1131300ED91FC9161110AC00088F189E02DB7E0EC
S1131310E83BFB0711F49398089509940684F78534
S1131320E02DB7E0E63BFB07C1F7939A0895DC0193
S1131330ED91FC9161110AC00088F189E02DB9E0BA
S1131340E635FB0711F4D898089509940684F785C7
S1131350E02DB9E0E435FB07C1F7D89A0895DC0124
S1131360ED91FC9161110AC00088F189E02DB8E08B
S1131370E536FB0711F4C598089509940684F785AA
S1131380E02DB8E0E336FB07C1F7C59A0895DC0108
S1131390ED91FC9161110AC00088F189E02DB7E05C
S11313A0EC3EFB0711F49698089509940684F7859A
S11313B0E02DB7E0EA3EFB07C1F7969A0895DC01F9
S11313C0ED91FC9161110AC00088F189E02DB8E02B
S11313D0EF3DFB0711F4C198089509940684F7853D
S11313E0E02DB8E0ED3DFB07C1F7C19A0895DC019B
S11313F0ED91FC9161110AC00088F189E02DB7E0FC
S1131400E23DFB0711F49498089509940684F78546
S1131410E02DB7E0E03DFB07C1F7949A0895DC01A5
S1131420ED91FC9161110AC00088F189E02DB8E0CA
S1131430E23AFB0711F4C398089509940684F785EA
S1131440E02DB8E0E03AFB07C1F7C39A0895DC0148
S1131450ED91FC9161110AC00088F189E02DB8E09A
S1131460E13CFB0711F4C298089509940684F785BA
S1131470E02DB8E0EF3BFB07C1F7C29A0895DC0109
S1131480ED91FC9161110AC00088F189E02DB8E06A
S1131490E832FB0711F4C798089509940684F78588
S11314A0E02DB8E0E632FB07C1F7C79A0895DC01E6
S11314B0ED91FC9161110AC00088F189E02DB8E03A
S11314C0E634FB0711F4C698089509940684F78559
S11314D0E02DB8E0E434FB07C1F7C69A0895DC01B7
S11314E0ED91FC9161110AC00088F189E02DB8E00A
S11314F0EB30FB0711F49598089509940684F78559
S1131500E02DB8E0E930FB07C1F7959A0895DC01B6
S1131510ED91FC9161110AC00088F189E02DB9E0D8
S1131520EB31FB0711F4DA98089509940684F785E2
S1131530E02DB9E0E931FB07C1F7DA9A0895DC013F
S1131540ED91FC9161110AC00088F189E02DB8E0A9
S1131550E338FB0711F4C498089509940684F785C9
S1131560E02DB8E0E138FB07C1F7C49A0895DC0127
S1131570ED91FC9161110AC00088F189E02DB8E079
S1131580EC3FFB0711F4C098089509940684F7858D
S1131590E02DB8E0EA3FFB07C1F7C09A0895DC01EB
S11315A0ED91FC9161110AC00088F189E02DB9E048
S11315B0E933FB0711F4D998089509940684F78553
S11315C0E02DB9E0E733FB07C1F7D99A08952F92CC
S11315D03F924F925F926F927F928F929F92AF92BF
S11315E0BF92CF92DF92EF92FF920F931F93CF930C
S11315F0DF93CDB7DEB76C970FB6F894DEBF0FBE9E
S1131600CDBF8C01562E4AE150E060E070E0CE017F
S113161001960E941A1AD8018D919C91DC01ED91DA
S1131620FC910088F189E02D0995F801868D8FB928
S1131630779BFECF80EB8FB9779BFECFD8015F9667
S11316408C918FB9779BFECFF80180819181DC0169
S1131650ED91FC910684F785E02D09951FB8779BE1
S1131660FECFF80180819181DC01ED91FC9106842B
S1131670F785E02D0995B980BB2009F443C04E01DC
S1131680F2E08F0E911CD8018D919C91DC01ED91BB
S1131690FC910684F785E02D09958B2D90E08897C1
S11316A06C01CC0CDD1CCC0CDD1C8C0D9D1DFC01D7
S11316B0E95DFF4F7F019C01245D3F4F690130E2EA
S11316C0B31611F40C94BD15C7010E942A1A8FB9E0
S11316D0779BFECF8FEFE81AF80AEC14FD0479F734
S11316E01FB8779BFECFD8018D919C91DC01ED91C1
S11316F0FC910088F189E02D0995F401B1904F0126
S1131700B110C1CFF80180819181DC01ED91FC9190
S11317100088F189E02D099543E050E064E270E02F
S1131720CE0101960E941A1AF80180819181DC0190
S1131730ED91FC910088F189E02D0995F801868DE1
S11317408FB9779BFECF81EB8FB9779BFECFD80102
S11317505F968C918FB9779BFECFF8018081918140
S1131760DC01ED91FC910684F785E02D09951FB805
S1131770779BFECFF80180819181DC01ED91FC9192
S11317800684F785E02D09959980992009F443C0D2
S11317905E01B2E0AB0EB11CF80180819181DC01E5
S11317A0ED91FC910684F785E02D0995892D90E053
S11317B088976C01CC0CDD1CCC0CDD1C8C0D9D1DA4
S11317C0FC01E95DFF4F7F019C01245D3F4F6901EE
S11317D030E2931611F40C94CA15C7010E942A1A18
S11317E08FB9779BFECF8FEFE81AF80AEC14FD044B
S11317F079F71FB8779BFECFD8018D919C91DC01BE
S1131800ED91FC910088F189E02D0995F501919005
S11318105F019110C1CFF80180819181DC01ED91CC
S1131820FC910088F189E02D09956BB2F801808163
S11318309181DC01ED91FC910684F785E02D0995F9
S11318403BECA32E31E0B32E40EDE42E41E0F42E28
S11318506501C6010E942A1A8FB9779BFECFFFEF5C
S1131860CF1ADF0A20EDC21621E0D20691F71FB885
S1131870779BFECFD8018D919C91DC01ED91FC9179
S11318800088F189E02D0995712C812C912CF801A7
S113189080819181DC01ED91FC910684F785E02D36
S11318A00995C301082C02C0959587950A94E2F71F
S11318B08370805D90E088976C01CC0CDD1CCC0CAF
S11318C0DD1C8C0D9D1DFC01E95DFF4F1F019C017A
S11318D0245D3F4F6901C1010E942A1A8FB9779B89
S11318E0FECF3FEF231A330A2C143D04A1F71FB88F
S11318F0779BFECFD8018D919C91DC01ED91FC91F9
S11319000088F189E02D0995B2E08B0E911CE8E086
S11319108E16910409F0BBCFD8018D919C91DC0106
S1131920ED91FC910684F785E02D0995ABECCA2E68
S1131930A1E0DA2EC6010E942A1A8FB9779BFECF46
S1131940BFEFCB1ADB0AEC14FD04A1F71FB8779B99
S1131950FECFF80180819181DC01ED91FC9100883A
S1131960F189E02D09956AB2F80180819181DC0149
S1131970ED91FC910684F785E02D0995FBECCF2EC3
S1131980F1E0DF2EC6010E942A1A8FB9779BFECFA1
S1131990BFEFCB1ADB0AEC14FD04A1F71FB8779B49
S11319A0FECFF80180819181DC01ED91FC910088EA
S11319B0F189E02D0995712C812C912CF8018081FD
S11319C09181DC01ED91FC910684F785E02D099568
S11319D0C301082C02C0959587950A94E2F7837099
S11319E0805D90E088976C01CC0CDD1CCC0CDD1C78
S11319F08C0D9D1DFC01E95DFF4F1F019C01245DC1
S1131A003F4F6901C1010E942A1A8FB9779BFECF0B
S1131A103FEF231A330A2C143D04A1F71FB8779B18
S1131A20FECFD8018D919C91DC01ED91FC91008851
S1131A30F189E02D0995B2E08B0E911CE8E08E1639
S1131A40910409F0BBCFD8018D919C91DC01ED91FB
S1131A50FC910684F785E02D09957BECC72E71E097
S1131A60D72EC6010E942A1A8FB9779BFECFBFEFEB
S1131A70CB1ADB0AEC14FD04A1F71FB8779BFECF49
S1131A80F80180819181DC01ED91FC910088F1895C
S1131A90E02D099569B2F80180819181DC01ED9115
S1131AA0FC910684F785E02D09956BECC62E61E068
S1131AB0D62EC6010E942A1A8FB9779BFECFBFEF9C
S1131AC0CB1ADB0AEC14FD04A1F71FB8779BFECFF9
S1131AD0F80180819181DC01ED91FC910088F1890C
S1131AE0E02D0995712C812C912CF8018081918134
S1131AF0DC01ED91FC910684F785E02D0995C30185
S1131B00082C02C0959587950A94E2F78370805D4E
S1131B1090E088976C01CC0CDD1CCC0CDD1C8C0D8A
S1131B209D1DFC01E95DFF4F1F019C01245D3F4F9A
S1131B306901C1010E942A1A8FB9779BFECF3FEF3A
S1131B40231A330A2C143D04A1F71FB8779BFECF48
S1131B50D8018D919C91DC01ED91FC910088F18973
S1131B60E02D0995B2E08B0E911CE8E08E169104ED
S1131B7009F0BBCFD8018D919C91DC01ED91FC91D2
S1131B800684F785E02D09954BECC42E41E0D42E54
S1131B90C6010E942A1A8FB9779BFECFBFEFCB1ADA
S1131BA0DB0AEC14FD04A1F71FB8779BFECFF80104
S1131BB080819181DC01ED91FC910088F189E02D17
S1131BC0099543E050E061E270E0CE0101960E9485
S1131BD01A1AF80180819181DC01ED91FC91008851
S1131BE0F189E02D0995F801868D8FB9779BFECF99
S1131BF082EB8FB9779BFECFD8015F968C918FB91A
S1131C00779BFECFF80180819181DC01ED91FC91FD
S1131C100684F785E02D09951FB8779BFECFF80160
S1131C2080819181DC01ED91FC910684F785E02DA2
S1131C3009954980442009F442C04E01B2E08B0E5C
S1131C40911CF80180819181DC01ED91FC91068465
S1131C50F785E02D0995842D90E088976C01CC0CD4
S1131C60DD1CCC0CDD1C8C0D9D1DFC01E95DFF4FC2
S1131C703F019C01245D3F4F690130E2431609F4A2
S1131C8071C7C3010E942A1A8FB9779BFECF8FEFC9
S1131C90681A780A6C147D0481F71FB8779BFECF0D
S1131CA0D8018D919C91DC01ED91FC910088F18922
S1131CB0E02D0995F40141904F014110C2CFF80184
S1131CC080819181DC01ED91FC910088F189E02D06
S1131CD0099568B2F80180819181DC01ED91FC9154
S1131CE00684F785E02D09953BECC32E31E0D32E15
S1131CF0C6010E942A1A8FB9779BFECFFFEFCF1A35
S1131D00DF0AEC14FD04A1F71FB8779BFECFD801BE
S1131D108D919C91DC01ED91FC910088F189E02D7D
S1131D200995712C812C912CF80180819181DC0121
S1131D30ED91FC910684F785E02D0995C301082CEB
S1131D4002C0959587950A94E2F78370805D90E0D0
S1131D5088976C01CC0CDD1CCC0CDD1C8C0D9D1DFE
S1131D60FC01E95DFF4F1F019C01245D3F4F6901A8
S1131D70C1010E942A1A8FB9779BFECF3FEF231A25
S1131D80330A2C143D04A1F71FB8779BFECFD8016A
S1131D908D919C91DC01ED91FC910088F189E02DFD
S1131DA00995B2E08B0E911CE8E08E16910409F0BF
S1131DB0BBCFD8018D919C91DC01ED91FC910684FF
S1131DC0F785E02D0995ABECCA2EA1E0DA2EC60109
S1131DD00E942A1A8FB9779BFECFBFEFCB1ADB0A7A
S1131DE0EC14FD04A1F71FB8779BFECFF8018081A6
S1131DF09181DC01ED91FC910088F189E02D099538
S1131E0067B2F80180819181DC01ED91FC91068437
S1131E10F785E02D0995FBECCF2EF1E0DF2EC6010E
S1131E200E942A1A8FB9779BFECFBFEFCB1ADB0A29
S1131E30EC14FD04A1F71FB8779BFECFF801808155
S1131E409181DC01ED91FC910088F189E02D0995E7
S1131E50712C812C912CF80180819181DC01ED9110
S1131E60FC910684F785E02D0995C301082C02C076
S1131E70959587950A94E2F78370805D90E0889742
S1131E806C01CC0CDD1CCC0CDD1C8C0D9D1DFC01EF
S1131E90E95DFF4F1F019C01245D3F4F6901C101B2
S1131EA00E942A1A8FB9779BFECF3FEF231A330A79
S1131EB02C143D04A1F71FB8779BFECFD8018D9158
S1131EC09C91DC01ED91FC910088F189E02D09954C
S1131ED0B2E08B0E911CE8E08E16910409F0BBCFA2
S1131EE0D8018D919C91DC01ED91FC910684F785DC
S1131EF0E02D09957BECC72E71E0D72EC6010E9418
S1131F002A1A8FB9779BFECFBFEFCB1ADB0AEC14EA
S1131F10FD04A1F71FB8779BFECFF8018081918162
S1131F20DC01ED91FC910088F189E02D099566B200
S1131F30F80180819181DC01ED91FC910684F785A3
S1131F40E02D09956BECC62E61E0D62EC6010E94E9
S1131F502A1A8FB9779BFECFBFEFCB1ADB0AEC149A
S1131F60FD04A1F71FB8779BFECFF8018081918112
S1131F70DC01ED91FC910088F189E02D0995712C2B
S1131F80812C912CF80180819181DC01ED91FC91EF
S1131F900684F785E02D0995C301082C02C09595A8
S1131FA087950A94E2F78370805D90E088976C01CE
S1131FB0CC0CDD1CCC0CDD1C8C0D9D1DFC01E95DE5
S1131FC0FF4F1F019C01245D3F4F6901C1010E9425
S1131FD02A1A8FB9779BFECF3FEF231A330A2C14AA
S1131FE03D04A1F71FB8779BFECFD8018D919C913A
S1131FF0DC01ED91FC910088F189E02D0995B2E0B6
S11320008B0E911CE8E08E16910409F0BBCFD80129
S11320108D919C91DC01ED91FC910684F785E02D76
S113202009954BECC42E41E0D42EC6010E942A1A15
S11320308FB9779BFECFBFEFCB1ADB0AEC14FD04FC
S1132040A1F71FB8779BFECFF80180819181DC0155
S1132050ED91FC910088F189E02D099543E050E071
S11320606EE170E0CE0101960E941A1AF801808197
S11320709181DC01ED91FC910088F189E02D0995B5
S1132080F801868D8FB9779BFECF83EB8FB9779B51
S1132090FECFD8015F968C918FB9779BFECFF80164
S11320A080819181DC01ED91FC910684F785E02D1E
S11320B009951FB8779BFECFF80180819181DC01DF
S11320C0ED91FC910684F785E02D09954980442023
S11320D009F442C04E01B2E08B0E911CF8018081DC
S11320E09181DC01ED91FC910684F785E02D099541
S11320F0842D90E088976C01CC0CDD1CCC0CDD1C8D
S11321008C0D9D1DFC01E95DFF4F3F019C01245D89
S11321103F4F690130E2431609F419C5C3010E9417
S11321202A1A8FB9779BFECF8FEF681A780A6C143E
S11321307D0481F71FB8779BFECFD8018D919C91C8
S1132140DC01ED91FC910088F189E02D0995F40101
S113215041904F014110C2CFF80180819181DC018F
S1132160ED91FC910088F189E02D099565B2F801A3
S113217080819181DC01ED91FC910684F785E02D4D
S113218009953BECC32E31E0D32EC6010E942A1AD6
S11321908FB9779BFECFFFEFCF1ADF0AEC14FD0453
S11321A0A1F71FB8779BFECFD8018D919C91DC01DC
S11321B0ED91FC910088F189E02D0995712C812C19
S11321C0912CF80180819181DC01ED91FC910684D0
S11321D0F785E02D0995C301082C02C095958795D4
S11321E00A94E2F78370805D90E088976C01CC0CD0
S11321F0DD1CCC0CDD1C8C0D9D1DFC01E95DFF4F2D
S11322001F019C01245D3F4F6901C1010E942A1AEC
S11322108FB9779BFECF3FEF231A330A2C143D046A
S1132220A1F71FB8779BFECFD8018D919C91DC015B
S1132230ED91FC910088F189E02D0995B2E08B0EB7
S1132240911CE8E08E16910409F0BBCFD8018D9162
S11322509C91DC01ED91FC910684F785E02D0995B4
S1132260ABECCA2EA1E0DA2EC6010E942A1A8FB95D
S1132270779BFECFBFEFCB1ADB0AE0EDCE16E1E091
S1132280DE0691F71FB8779BFECFD8018D919C9104
S1132290DC01ED91FC910088F189E02D099564B28F
S11322A0F80180819181DC01ED91FC910684F78530
S11322B0E02D0995FBECCF2EF1E0DF2EC6010E9444
S11322C02A1A8FB9779BFECFBFEFCB1ADB0AEC1427
S11322D0FD04A1F71FB8779BFECFF801808191819F
S11322E0DC01ED91FC910088F189E02D0995712CB8
S11322F0812C912CF80180819181DC01ED91FC917C
S11323000684F785E02D0995C301082C02C0959534
S113231087950A94E2F78370805D90E088976C015A
S1132320CC0CDD1CCC0CDD1C8C0D9D1DFC01E95D71
S1132330FF4F1F019C01245D3F4F6901C1010E94B1
S11323402A1A8FB9779BFECF3FEF231A330A2C1436
S11323503D04A1F71FB8779BFECFD8018D919C91C6
S1132360DC01ED91FC910088F189E02D0995B2E042
S11323708B0E911CE8E08E16910409F0BBCFD801B6
S11323808D919C91DC01ED91FC910684F785E02D03
S113239009957BECC72E71E0D72EC6010E942A1A3C
S11323A08FB9779BFECFBFEFCB1ADB0AEC14FD0489
S11323B0A1F71FB8779BFECFF80180819181DC01E2
S11323C0ED91FC910088F189E02D099563B2F80143
S11323D080819181DC01ED91FC910684F785E02DEB
S11323E009956BECC62E61E0D62EC6010E942A1A0E
S11323F08FB9779BFECFBFEFCB1ADB0AEC14FD0439
S1132400A1F71FB8779BFECFF80180819181DC0191
S1132410ED91FC910088F189E02D0995712C812CB6
S1132420912CF80180819181DC01ED91FC9106846D
S1132430F785E02D0995C301082C02C09595879571
S11324400A94E2F78370805D90E088976C01CC0C6D
S1132450DD1CCC0CDD1C8C0D9D1DFC01E95DFF4FCA
S11324601F019C01245D3F4F6901C1010E942A1A8A
S11324708FB9779BFECF3FEF231A330A2C143D0408
S1132480A1F71FB8779BFECFD8018D919C91DC01F9
S1132490ED91FC910088F189E02D0995B2E08B0E55
S11324A0911CE8E08E16910409F0BBCFD8018D9100
S11324B09C91DC01ED91FC910684F785E02D099552
S11324C04BECC42E41E0D42EC6010E942A1A8FB9C7
S11324D0779BFECFBFEFCB1ADB0AEC14FD04A1F708
S11324E01FB8779BFECFF80180819181DC01ED91CB
S11324F0FC910088F189E02D099543E050E06BE1FF
S113250070E0CE0101960E941A1AF801808191812F
S1132510DC01ED91FC910088F189E02D0995F80129
S1132520868D8FB9779BFECF84EB8FB9779BFECFD7
S1132530D8015F968C918FB9779BFECFF80180818B
S11325409181DC01ED91FC910684F785E02D0995DC
S11325501FB8779BFECFF80180819181DC01ED915A
S1132560FC910684F785E02D09954980442009F4FF
S113257042C04E01B2E08B0E911CF8018081918122
S1132580DC01ED91FC910684F785E02D0995842DFD
S113259090E088976C01CC0CDD1CCC0CDD1C8C0D00
S11325A09D1DFC01E95DFF4F3F019C01245D3F4FF0
S11325B0690130E2431609F4BFC2C3010E942A1A1A
S11325C08FB9779BFECF8FEF681A780A6C147D045D
S11325D081F71FB8779BFECFD8018D919C91DC01C8
S11325E0ED91FC910088F189E02D0995F401419069
S11325F04F014110C2CFF80180819181DC01ED913E
S1132600FC910088F189E02D099562B2F80180817E
S11326109181DC01ED91FC910684F785E02D09950B
S11326203BECC32E31E0D32EC6010E942A1A8FB987
S1132630779BFECFFFEFCF1ADF0AEC14FD04A1F75E
S11326401FB8779BFECFD8018D919C91DC01ED9151
S1132650FC910088F189E02D0995712C812C912C35
S1132660F80180819181DC01ED91FC910684F7856C
S1132670E02D0995C301082C02C0959587950A940D
S1132680E2F78370805D90E088976C01CC0CDD1CD0
S1132690CC0CDD1C8C0D9D1DFC01E95DFF4F1F0161
S11326A09C01245D3F4F6901C1010E942A1A8FB920
S11326B0779BFECF3FEF231A330A2C143D04A1F776
S11326C01FB8779BFECFD8018D919C91DC01ED91D1
S11326D0FC910088F189E02D0995B2E08B0E911CE4
S11326E0E8E08E16910409F0BBCFD8018D919C913E
S11326F0DC01ED91FC910684F785E02D0995ABECA6
S1132700CA2EA1E0DA2EC6010E942A1A8FB9779B3D
S1132710FECFBFEFCB1ADB0AEC14FD04A1F71FB800
S1132720779BFECFF80180819181DC01ED91FC91D2
S11327300088F189E02D099561B2F80180819181C9
S1132740DC01ED91FC910684F785E02D0995FBEC05
S1132750CF2EF1E0DF2EC6010E942A1A8FB9779B93
S1132760FECFBFEFCB1ADB0AEC14FD04A1F71FB8B0
S1132770779BFECFF80180819181DC01ED91FC9182
S11327800088F189E02D0995712C812C912CF80198
S113279080819181DC01ED91FC910684F785E02D27
S11327A00995C301082C02C0959587950A94E2F710
S11327B08370805D90E088976C01CC0CDD1CCC0CA0
S11327C0DD1C8C0D9D1DFC01E95DFF4F1F019C016B
S11327D0245D3F4F6901C1010E942A1A8FB9779B7A
S11327E0FECF3FEF231A330A2C143D04A1F71FB880
S11327F0779BFECFD8018D919C91DC01ED91FC91EA
S11328000088F189E02D0995B2E08B0E911CE8E077
S11328108E16910409F0BBCFD8018D919C91DC01F7
S1132820ED91FC910684F785E02D09957BECC72E8C
S113283071E0D72EC6010E942A1A8FB9779BFECF6A
S1132840BFEFCB1ADB0AEC14FD04A1F71FB8779B8A
S1132850FECFF80180819181DC01ED91FC9100882B
S1132860F189E02D099560B2F80180819181DC0144
S1132870ED91FC910684F785E02D09956BECC62E4D
S113288061E0D62EC6010E942A1A8FB9779BFECF2B
S1132890BFEFCB1ADB0AEC14FD04A1F71FB8779B3A
S11328A0FECFF80180819181DC01ED91FC910088DB
S11328B0F189E02D0995712C812C912CF8018081EE
S11328C09181DC01ED91FC910684F785E02D099559
S11328D0C301082C02C0959587950A94E2F783708A
S11328E0805D90E088976C01CC0CDD1CCC0CDD1C69
S11328F08C0D9D1DFC01E95DFF4F1F019C01245DB2
S11329003F4F6901C1010E942A1A8FB9779BFECFFC
S11329103FEF231A330A2C143D04A1F71FB8779B09
S1132920FECFD8018D919C91DC01ED91FC91008842
S1132930F189E02D0995B2E08B0E911CE8E08E162A
S1132940910409F0BBCFD8018D919C91DC01ED91EC
S1132950FC910684F785E02D09954BECC42E41E0EB
S1132960D42EC6010E942A1A8FB9779BFECFBFEFDF
S1132970CB1ADB0AEC14FD04A1F71FB8779BFECF3A
S1132980F80180819181DC01ED91FC910088F1894D
S1132990E02D0995F80180819181DC01ED91FC9194
S11329A00088F189E02D0995F801868D8FB9779B10
S11329B0FECF85EB8FB9779BFECFD8015F968C91C4
S11329C08FB9779BFECFF80180819181DC01ED9175
S11329D0FC910684F785E02D09951FB8779BFECFFF
S11329E0F80180819181DC01ED91FC910684F785E9
S11329F0E02D09953BECC32E31E0D32EC6010E9495
S1132A002A1A8FB9779BFECFBFEFCB1ADB0AEC14DF
S1132A10FD04A1F71FB8779BFECFF8018081918157
S1132A20DC01ED91FC910088F189E02D0995652C7C
S1132A30712C812C912CF80180819181DC01ED9124
S1132A40FC910684F785E02D0995C301082C02C08A
S1132A50959587950A94E2F78370805D90E0889756
S1132A606C01CC0CDD1CCC0CDD1C8C0D9D1DFC0103
S1132A70E95DFF4F2F019C01245D3F4F6901C201B5
S1132A800E942A1A8FB9779BFECF3FEF431A530A4D
S1132A904C145D04A1F71FB8779BFECFD8018D912C
S1132AA09C91DC01ED91FC910088F189E02D099560
S1132AB0B2E08B0E911CE8E08E16910409F0BBCFB6
S1132AC0D8018D919C91DC01ED91FC910684F785F0
S1132AD0E02D0995C5010E942A1A8FB9779BFECF74
S1132AE0BFEFAB1ABB0AEA14FB04A1F71FB8779B2C
S1132AF0FECFF80180819181DC01ED91FC91008889
S1132B00F189E02D09956C960FB6F894DEBF0FBEDF
S1132B10CDBFDF91CF911F910F91FF90EF90DF9088
S1132B20CF90BF90AF909F908F907F906F905F9069
S1132B304F903F902F9008951FB8779BFECF8FEF53
S1132B40681A780A6C147D0409F033CD42CD1FB89D
S1132B50779BFECF8FEF681A780A6C147D0409F016
S1132B60D9CAE8CA1FB8779BFECF8FEF681A780AD4
S1132B706C147D0409F081C890C81FB8779BFECF00
S1132B808FEFE81AF80AEC14FD0411F00C945F0BB3
S1132B900C94700B1FB8779BFECF8FEFE81AF80ADE
S1132BA0EC14FD0411F00C94E80B0C94F90B0E9446
S1132BB0DC03CFEF8091940290919502DC01ED91BA
S1132BC0FC910088F189E02D099580918D02809314
S1132BD08E02CFB9779BFECF8FB1809390028295FE
S1132BE0807F80938D02CFB9779BFECF8FB1809386
S1132BF0910282958F7090918D02892B80938D0222
S1132C008091940290919502DC01ED91FC910684EF
S1132C10F785E02D099590918E0280918D02209187
S1132C208F02913C08F474C08F3308F071C02F5F99
S1132C3020938F0290E0AC01440F551F90919102B4
S1132C40892F90E095958795959587959595879586
S1132C50842B952B30E0322F2227330F822B932B9A
S1132C6090938C0280938B022091890230918A0286
S1132C702115310581F420919C0230919D02281781
S1132C80390708F04FC0AC01421B530B9A01509313
S1132C908A0240938902821B930B9093880280934B
S1132CA0870240919E0250919F028417950740F439
S1132CB0241B350B280F391F30938A022093890275
S1132CC04091A0025091A1024817590740F4841B77
S1132CD0950B820F931F90938A02809389028091AF
S1132CE0A8029091A902DC01ED91FC910088F18980
S1132CF0E02D09950E94A1068091A8029091A90255
S1132D00DC01ED91FC910684F785E02D099552CF05
S1132D10813C08F48FCF9F3308F08CCF215020934F
S1132D208F0288CF281B390B30938A0220938902A3
S1132D30B2CFE5EDF2E01086118210821382128286
S1132D401582148217821682E2EAF2E080E886870E
S1132D5090EB978780EF808B81E8818B84EA828B6C
S1132D6085EA838B86EA848B87EA858B8EEA868B59
S1132D708FEA878B83ED808F8AED818F8BED828F35
S1132D8085ED838F89ED848F88EA858F82E0868F35
S1132D9020E1278F20E420A320E221A321E222A323
S1132DA093A390EC94A398EC95A390EA96A39DEA40
S1132DB097A39BE890A781A78FE282A78EE283A7BF
S1132DC083EA84A786E285A787E286A789E287A7A4
S1132DD08AE280AB84E790E09183808386E790E089
S1132DE0938382836AE670E0738762874CE650E0DF
S1132DF05583448382E790E0978386832EE630E010
S1132E003587248788E690E091878087E7E8F2E0B9
S1132E101182108213821282158214821682178202
S1132E20108611861286A0E0B0E8B68BA58BA0E0D0
S1132E30B0E3B08FA78BA0E0B0EDB28FA18F728BFF
S1132E40618B5487438740E750E056874587348B2E
S1132E50238B908B8787EFE7F2E088E790E09183FC
S1132E6080838AE790E0938382838CE790E0958364
S1132E70848310927E0210927D0210927A02109244
S1132E8079021092760210927502109272021092D8
S1132E907102089508950E945F170C9440180E94CF
S1132EA0391858F00E94321840F029F45F3F29F095
S1132EB00C94291851110C9474180C942F180E9416
S1132EC0511868F39923B1F3552391F3951B550BCE
S1132ED0BB27AA2762177307840738F09F5F5F4FE9
S1132EE0220F331F441FAA1FA9F335D00E2E3AF028
S1132EF0E0E832D091505040E695001CCAF72BD040
S1132F00FE2F29D0660F771F881FBB1F2617370790
S1132F104807AB07B0E809F0BB0B802DBF01FF27C2
S1132F2093585F4F3AF09E3F510578F00C9429185E
S1132F300C9474185F3FE4F3983ED4F38695779528
S1132F406795B795F7959F5FC9F7880F911D96957B
S1132F50879597F90895E1E0660F771F881FBB1FD7
S1132F60621773078407BA0720F0621B730B840B84
S1132F70BA0BEE1F88F7E09508950E94591888F05F
S1132F809F5798F0B92F9927B751B0F0E1F0660F29
S1132F90771F881F991F1AF0BA95C9F714C0B1306A
S1132FA091F00E947318B1E008950C947318672F80
S1132FB0782F8827B85F39F0B93FCCF38695779599
S1132FC06795B395D9F73EF4909580957095619582
S1132FD07F4F8F4F9F4F0895E89409C097FB3EF4AD
S1132FE090958095709561957F4F8F4F9F4F992352
S1132FF0A9F0F92F96E9BB279395F69587957795D0
S11330006795B795F111F8CFFAF4BB0F11F460FF8F
S11330101BC06F5F7F4F8F4F9F4F16C0882311F0E7
S113302096E911C0772321F09EE8872F762F05C0FB
S1133030662371F096E8862F70E060E02AF09A9596
S1133040660F771F881FDAF7880F9695879597F98B
S1133050089597F99F6780E870E060E008959FEF16
S113306080EC089500240A9416161706180609061B
S1133070089500240A9412161306140605060895EA
S1133080092E0394000C11F4882352F0BB0F40F472
S1133090BF2B11F460FF04C06F5F7F4F8F4F9F4FB2
S11330A0089557FD9058440F551F59F05F3F71F034
S11330B04795880F97FB991F61F09F3F79F087959B
S11330C00895121613061406551FF2CF4695F1DF24
S11330D008C0161617061806991FF1CF86957105B4
S11330E0610508940895E894BB2766277727CB01E8
S11330F097F908950E948D180C9440180E94321874
S113310038F00E94391820F0952311F00C942918F6
S11331100C942F1811240C9474180E94511870F3F5
S1133120959FC1F3950F50E0551F629FF001729F68
S1133130BB27F00DB11D639FAA27F00DB11DAA1F77
S1133140649F6627B00DA11D661F829F2227B00DC4
S1133150A11D621F739FB00DA11D621F839FA00D4F
S1133160611D221F749F3327A00D611D231F849F9F
S1133170600D211D822F762F6A2F11249F575040F6
S11331809AF0F1F088234AF0EE0FFF1FBB1F661F71
S1133190771F881F91505040A9F79E3F510580F03A
S11331A00C9429180C9474185F3FE4F3983ED4F3FC
S11331B0869577956795B795F795E7959F5FC1F7DE
S11331C0FE2B880F911D9695879597F90895EE0F1C
S11331D0FF1F0590F491E02D0994CF93DF93823083
S11331E0910510F482E090E0E091E002F091E102B8
S11331F020E030E0C0E0D0E0309711F1408151810F
S113320048175907C0F04817590761F48281938120
S1133210209719F09B838A832BC09093E1028093BB
S1133220E00226C02115310519F04217530718F49E
S11332309A01BE01DF01EF010280F381E02DDCCFB2
S11332402115310509F1281B390B2430310590F47F
S113325012968D919C9113976115710521F0FB01D4
S11332609383828304C09093E1028093E002FD0182
S1133270329644C0FD01E20FF31F819391932250D3
S113328031092D933C933AC02091DE023091DF0244
S1133290232B41F420918000309181003093DF0290
S11332A02093DE0220917E0030917F0021153105AC
S11332B041F42DB73EB74091820050918300241B06
S11332C0350BE091DE02F091DF02E217F307A0F480
S11332D02E1B3F0B2817390778F0AC014E5F5F4F68
S11332E02417350748F04E0F5F1F5093DF024093B9
S11332F0DE028193919302C0E0E0F0E0CF01DF9120
S1133300CF9108950F931F93CF93DF93009709F400
S11333108CC0FC013297138212820091E00210915A
S1133320E1020115110581F420813181820F931F7F
S11333302091DE023091DF022817390779F5F093E6
S1133340DF02E093DE0271C0D80140E050E0AE1726
S1133350BF0750F412962D913C911397AD0121159E
S1133360310509F1D901F3CF9D01DA0133832283B9
S113337060817181860F971F8217930769F4EC01AE
S113338028813981260F371F2E5F3F4F31832083D9
S11333908A819B8193838283452B29F4F093E102F4
S11333A0E093E00242C01396FC93EE931297ED0172
S11333B0499159919E01240F351FE217F30771F4C7
S11333C080819181840F951F029611969C938E9310
S11333D08281938113969C938E931297E0E0F0E0A0
S11333E0D80112968D919C911397009719F0F801CA
S11333F08C01F6CF8D919C9198012E5F3F4F820FE7
S1133400931F2091DE023091DF022817390769F4F7
S1133410309729F41092E1021092E00202C0138264
S113342012821093DF020093DE02DF91CF911F918D
S11334300F910895DC01CB01FC01E199FECF06C098
S1133440FFBBEEBBE09A31960DB20D924150504055
S1133450B8F70895E199FECF9FBB8EBBE09A9927F8
S11334608DB3089510E0C9E3D0E004C0FE010E94CA
S1113470E7182196CA33D107C9F7F894FFCFA5
S113347E480228020802E801C801A801880168016F
S113348E480128010801E800C800A80088000000CF
S113349EE2022000000000004409460948094D09D3
S11334AE4F09970951095409560958095D095F09CD
S11334BEA807610900000000260928092A092F0916
S11334CE3109CF0A3309370939093B094009420941
S11334DEA707630900000000070909090B09100971
S11334EE1209870A140919091B091D09220924093D
S11334FEA607650900000000EA08EC08EE08F308C8
S113350EF508B70AF708FA08FC08FE0803090509C6
S113351EA507670900000000CC08CE08D008D5081E
S113352ED708DF09D908DD08DF08E108E608E8084E
S113353EA407690900000000AD08AF08B108B60879
S113354EB808270ABA08BF08C108C308C808CA08B9
S113355EA3076B09000000008E08900892089708D4
S113356E99080F0A9B08A008A208A408A908AB088A
S113357EA2076D090000000070087208740879082B
S113358E7B089F0A7D088108830885088A088C08B1
S113359EA1076F09000000005108530855085A0886
S11335AE5C08AF095E086308650867086C086E0856
S11335BEA0077109000000003208340836083B08E1
S11335CE3D08570A3F084408460848084D084F0866
S11335DE9F07730900000000160818081A081E0831
S11335EE20083F0A2208260828082A082E08300830
S11335FE9E07750900000000F707F907FB0700088E
S113360E02086F0A040809080B080D0812081408AA
S113361E9D07770900000000DD07DF07E107E607D5
S113362EE807C7099507EA07EC07EE07F307F5075E
S113363E9C07790900000000C307C507C707CC071C
S113364ECE07F7099107D007D207D407D907DB07AE
S113365E9B077B0900000000A907AB07AD07B20763
S113366EB4077F098C07B607B807BA07BF07C107A7
S107367E9A077D091D
S9030000FC
